:100000000C94B3000C94DB000C94DB000C94E90519
:100010000C9413060C943D060C94DB000C94740EA7
:100020000C94DB000C94DB000C94DB000C94DB00E4
:100030000C94DB000C94DB000C94DB000C94DB00D4
:100040000C94E0070C94DB000C940E0A0C945C0AF0
:100050000C94DB000C94DB000C94DB000C94DB00B4
:100060000C94DB000C94DB0000C2010001001100C5
:1000700011000C0000E100000A002500250021000D
:10008000009600001900390039003600127A00008D
:100090001F004600460044008070000022004D0012
:1000A0004D004A00004B00003600750075007200DC
:1000B000403800004A009C009C0099008025000008
:1000C0007200EC00EC00E900C0120000E900DA0167
:1000D000DA01D70160090000D701B603B603B30304
:1000E000B0040000B3036E076E076B0758020000F0
:1000F0006E07DC0EDC0ED80E2C010000DC0EC11DDC
:10010000C11DBE1D00000000240027002A000000C1
:100110000000250028002B0000000000230026001E
:10012000290004040404040404040202020202027A
:1001300003030303030301020408102040800102AB
:10014000040810200102040810200000000700022B
:10015000010000030406000000000000000002008F
:100160002D01C80B260111241FBECFEFD8E0DEBF42
:10017000CDBF11E0A0E0B1E0E2E3FAE202C00590F9
:100180000D92AC33B107D9F712E0ACE3B1E001C096
:100190001D92A935B107E1F711E0C4E6D1E004C032
:1001A0002297FE010E940815C036D107C9F70E94A8
:1001B0001E0C0C940C150C940000FC018827992748
:1001C000E89421912032E9F3293010F02E30C8F361
:1001D0002B3241F02D3239F4689404C00E94FB00A8
:1001E000820F911D219120532A30C0F31EF4909567
:1001F00081959F4F08957AE0979F902D879F802D3E
:10020000910D11240895EF920F931F938130910562
:1002100081F46F5F7F4FB1F48CE391E068E040E0E0
:1002200050E020E030E000E010E0EE240E944905BC
:1002300009C0892B39F46F5F7F4F21F48CE391E083
:100240000E940E051F910F91EF90089580E090E0BD
:100250006FEF7FEF0E940301089581E090E06FEF60
:100260007FEF0E94030108958F929F92AF92BF92F9
:10027000CF92DF92EF92FF920F931F93AEE18A2EFF
:10028000A2E09A2EC40160E071E00E94520D8CE35E
:1002900091E00E946E047B018C01C401B801A701AA
:1002A00022E030E00E94390E00D000D0CDB6DEB69C
:1002B0000894C11CD11CC801B7010E9435132CED54
:1002C00035E040E050E0F6012083318342835383E0
:1002D0002CE231E040E050E0FAE0EF2EF12C012D6D
:1002E000112DE8E7AE2EB12CC12CD12C0E94E610C6
:1002F0009B01AC010F900F900F900F9089E0B90116
:100300002EE130E040E050E00E94D00EC4010E9497
:10031000630C62E370E080E090E00E9428081F9187
:100320000F91FF90EF90DF90CF90BF90AF909F9094
:100330008F9008958EE192E040E855E260E070E031
:100340000E94970A08953F924F925F926F927F9218
:100350008F929F92AF92BF92CF92DF92EF92FF92D5
:100360000F931F93CF93DF93FC01362EA385B485A3
:100370006C9011967C90119712968C901297139610
:100380009C9013978781482E5524ED01EE24E39429
:10039000FF24F39401E010E02FC0DC80CD80BE800C
:1003A000AF806D2D7C2D8B2D9A2D288139814A812E
:1003B0005B810E94C912882319F0FF24F39401C0C5
:1003C000F3946D2D7C2D8B2D9A2D9301A4010E9409
:1003D000C912882311F4E3940CC0332019F4EF14EC
:1003E00018F007C0FE1429F46D2C7C2C8B2C9A2C51
:1003F000EF2C0F5F1F4F24960415150574F2B301FF
:10040000C401DF91CF911F910F91FF90EF90DF908A
:10041000CF90BF90AF909F908F907F906F905F90A4
:100420004F903F900895EF92FF920F931F93CF93B9
:10043000DF93EC0161E00E94A3017B018C01CE01FE
:1004400060E00E94A3019B01AC01B701C8010E94BA
:10045000C912882379F08F81869590E0880F991FC3
:10046000880F991FEB85FC85E80FF91FE080F1806C
:1004700002811381B701C801DF91CF911F910F91C4
:10048000FF90EF9008958F929F92AF92BF92CF927C
:10049000DF92EF92FF920F931F93DF93CF93CDB72D
:1004A000DEB77C018DB69EB6A62EBB248DB79EB757
:1004B0008A199B090FB6F8949EBF0FBE8DBFCDB6AB
:1004C000DEB60894C11CD11CF701A185B285ED915F
:1004D000FC9111970284F385E02DCD010995D70198
:1004E0001996ED91FC911A97A081B18114962D91E6
:1004F0003C911597CF01F9010995892B81F3D7011B
:100500001996ED91FC911A97A081B18116962D91C3
:100510003C911797CF01F901099582359105F9F6BC
:1005200000E010E021C0D7011996ED91FC911A97D7
:10053000A081B18114962D913C911597CF01F901BD
:100540000995892B81F3F701A185B285ED91FC9185
:1005500011970680F781E02DCD010995F601E00F96
:10056000F11F80830F5F1F4F0A151B05E4F2C601C0
:100570000E94DD000FB6F8949EBE0FBE8DBECF91D7
:10058000DF911F910F91FF90EF90DF90CF90BF9080
:10059000AF909F908F900895FC018181928181306E
:1005A0009105D9F18230910509F478C0009709F0DE
:1005B000AFC08381948181309105B9F0823091057B
:1005C00019F1009709F0A4C0808161E020E432E4D1
:1005D0004FE050E00E9471090E94661320E030E075
:1005E00043E153E40E94CD1234C0808161E020E4F5
:1005F00032E44FE050E00E9471090E94661320E04F
:1006000030E048E652E480C0808161E020E432E4DA
:100610004FE050E00E94710971C083819481813064
:100620009105F1F08230910539F1009709F070C021
:1006300080810E94BC08AA2797FDA095BA2FBC0113
:10064000CD010E94681320E030E040E05FE30E94AB
:100650001C140E943513882777FD8095982F32C08F
:1006600080810E94BC08AA2797FDA095BA2FBC01E3
:10067000CD010E9468134AC080810E94BC08AA274D
:1006800097FDA095BA2FBC01CD010E94681320E010
:1006900030E040EA50E40E941C1432C0838194810F
:1006A00081309105C1F08230910501F1009781F50B
:1006B000CF0163E00E944302AA2797FDA095BA2FBD
:1006C000BC01CD010E9468132CE53FE842E250E4F2
:1006D0000E941C141BC0CF0163E00E944302A0E0F3
:1006E000B0E0BC01CD010E94661310C0CF0164E0F0
:1006F0000E944302A0E0B0E0BC01CD010E9466135D
:1007000020E030E040E251E40E94CD12E62F692F54
:100710002E2F372F482F562FB901CA0108952F9237
:100720003F924F925F926F927F928F929F92AF9281
:10073000BF92CF92DF92EF92FF920F931F93DF93BE
:10074000CF9300D000D000D0CDB7DEB75C01CC2471
:10075000DD24EE24FF242CC0D5011B960D911C91A5
:100760001C970E0D1F1DC5010E94CC02F80160836D
:10077000718382839383D50111968D919C911297F9
:10078000019779F417968C91179790E00197C81606
:10079000D90639F018966C9170E080E090E00E94E4
:1007A00028080894C11CD11CE4E0F0E0EE0EFF1E06
:1007B000D50117968C9190E0C816D9066CF2E1E04D
:1007C0002E2E312C74E0472E512C68C0F501238564
:1007D0003485240D351DD9018D919D910D90BC91CD
:1007E000A02D89839A83AB83BC83F1013197FE836B
:1007F000ED836CEF662E6FEF762E640C751C420154
:1008000016C0080D191DD801CD92DD92ED92FC9213
:100810001397ED81FE813197FE83ED838CEF9FEF7F
:10082000680E791E880E991EEF5FFF4FB1F0D5015B
:100830001B960D911C911C97F801E60DF71DC080C9
:10084000D180E280F38069817A818B819C81A701CC
:1008500096010E94C91287FDD4CFED81FE813196A9
:10086000EE0FFF1FEE0FFF1FFE83ED83D5011B96DA
:10087000ED91FC911C978D819E81E80FF91F898174
:100880009A81AB81BC8180839183A283B3830894D6
:10089000211C311CA4E0B0E04A0E5B1EF5018781EB
:1008A00090E0281639060CF491CF26960FB6F894EE
:1008B000DEBF0FBECDBFCF91DF911F910F91FF9093
:1008C000EF90DF90CF90BF90AF909F908F907F90F0
:1008D0006F905F904F903F902F900895CF92DF924E
:1008E000EF92FF920F931F93CF93DF93EC010E943F
:1008F0008F038D819E818330910509F184309105AC
:100900003CF48130910561F0029709F076C014C083
:100910008430910509F46EC0059709F06EC04AC095
:100920008F81869590E0880F991F880F991FEB851E
:10093000FC85E80FF91F63C0CE0161E002C0CE0163
:1009400060E00E94A3017B018C015DC0CE010E948A
:10095000CC027B018C0160E070E040E050E012C00E
:10096000FD01E40FF51F4C5F5F4FA40FB51F8D9184
:100970009D910D90BC91A02D80839183A283B38320
:100980006F5F7F4F8F81282F30E0C9010197AB85C2
:10099000BC856817790724F32C193D09220F331FF2
:1009A000220F331FA20FB31FED92FD920D931C93E4
:1009B000139703C0B1E0CB2ED12CEB85FC85E080F2
:1009C000F180028113818F819601281B3109C901B1
:1009D000880F991F880F991FE81BF90BB701C801F1
:1009E00020813181428153810E94C912882309F0FC
:1009F000ADCF09C0CE010E941302EB85FC85E080DB
:100A0000F18002811381B701C801DF91CF911F915D
:100A10000F91FF90EF90DF90CF900895CF93DF93E9
:100A2000EC018B859C85009711F00E942D0C898527
:100A30009A850E94300CDF91CF910895CF93DF9378
:100A4000EC018D819E8181309105A4F08530910566
:100A50001CF0059779F409C08F81882311F485E093
:100A60000AC080FF09C08F5F06C08F81882321F4F0
:100A700082E001C081E08F838F8190E0880F991F11
:100A8000880F991F0E94330C9C878B87DF91CF9131
:100A90000895EF92FF920F931F93CF93DF93EC0192
:100AA000F62E68835A8349833C832B831E830D83F0
:100AB000EF8242305105A9F489E190E00E94360CA2
:100AC000182F092F6F2D41E00E94BF0719870A8751
:100AD000812F902F40E855E260E070E00E946706A9
:100AE00004C0862F60E00E94DE08CE010E941E0531
:100AF000DF91CF911F910F91FF90EF9008950F9389
:100B00001F93CF93DF93FC01708D76957170A6854E
:100B1000B7859585772329F08C91892309F454C0F2
:100B200004C08C91892309F04FC08089918920E00D
:100B300001972FEF8F3F9207D9F7C289D389A685F6
:100B4000B785158560E031E040E050E000E0CE017F
:100B5000202F01972FEF8F3F9207D9F78C91812398
:100B600011F0632B03C0832F80956823330F4F5FF1
:100B70005F4F4830510559F78489958920E00197E6
:100B80002FEF8F3F9207D9F77111609580918B01FC
:100B900020918C0190E001968F73907030E0821765
:100BA000930779F0E0918B01F0E0E55BFE4F608305
:100BB00080918B0190E001968F73907080938B01F0
:100BC00003C0808D8160808FDF91CF911F910F9145
:100BD00008951F920F920FB60F9211242F933F93F7
:100BE0004F935F936F937F938F939F93AF93BF9335
:100BF000EF93FF938091490190914A01009711F082
:100C00000E947F05FF91EF91BF91AF919F918F91CE
:100C10007F916F915F914F913F912F910F900FBEF8
:100C20000F901F9018951F920F920FB60F921124DC
:100C30002F933F934F935F936F937F938F939F93E4
:100C4000AF93BF93EF93FF938091490190914A0135
:100C5000009711F00E947F05FF91EF91BF91AF9136
:100C60009F918F917F916F915F914F913F912F91C4
:100C70000F900FBE0F901F9018951F920F920FB6F6
:100C80000F9211242F933F934F935F936F937F9312
:100C90008F939F93AF93BF93EF93FF9380914901FD
:100CA00090914A01009711F00E947F05FF91EF910A
:100CB000BF91AF919F918F917F916F915F914F9174
:100CC0003F912F910F900FBE0F901F901895CF92CC
:100CD000DF92EF92FF920F931F93CF93DF93EC017C
:100CE0007A018B011F8A1E8A1D8A1C8A1B8A1A8A16
:100CF000198A188A20E030E06901CC0CDD1CC20E94
:100D0000D31EB601660F771F660F771FAB014859D8
:100D10005F4FFA0185919591A591B4918E159F052C
:100D2000A007B107E9F4FB01E459FF4F85919491C5
:100D3000998B888BFB01E259FF4F859194919B8B96
:100D40008A8BFB01E059FF4F859194919D8B8C8B91
:100D5000FB01EE58FF4F859194919F8B8E8B06C0BF
:100D60002F5F3F4F2D30310509F0C6CF8C899D890B
:100D7000892B09F449C04C85463108F03DC090915B
:100D80006800483010F484E005C04E3010F082E076
:100D900001C081E0892B80936800483028F4EDE69B
:100DA000F0E0ADE6B0E00BC04E3028F0ECE6F0E04D
:100DB000ACE6B0E004C0EBE6F0E0ABE6B0E05081BA
:100DC000483040F481E090E002C0880F991F4A95B6
:100DD000E2F710C0242F30E04E3018F42850304095
:100DE00002C02E50304081E090E002C0880F991F71
:100DF0002A95E2F7852B8C938E899F8920E00197B5
:100E00002FEF8F3F9207D9F78091490190914A01C6
:100E10008C179D0781F0888D8E7F888F9FB7F894FF
:100E200010928B0180918B0180938C01D0934A01A9
:100E3000C09349019FBFDF91CF911F910F91FF9008
:100E4000EF90DF90CF9008952091490130914A01B1
:100E50002817390731F490918C0180918B019817F4
:100E600019F42FEF3FEF0FC0E0918C01F0E0E55B4C
:100E7000FE4F208180918C0190E001968F739070DD
:100E800080938C0130E0C90108952091490130918F
:100E90004A012817390719F020E030E00EC0809190
:100EA0008B0120918C0190E0805C9F4F821B910907
:100EB00060E470E00E94A2149C01C901089521E041
:100EC00030E0FC013383228380E090E0089520919C
:100ED000490130914A012817390749F49FB7F8941E
:100EE00010928B0180918B0180938C019FBF08959C
:100EF0002091490130914A012817390731F4909126
:100F00008C0180918B01981719F42FEF3FEF0AC0E5
:100F1000E0918C01F0E0E55BFE4F8081282F3327C4
:100F200027FD3095C90108951F93CF93DF93EC01FE
:100F3000162F862F60E00E94DE08888D81FD04C098
:100F4000812F61E00E941D091C87212F30E0C9011B
:100F50008A5C9E4FFC0184918D872E5D3E4FF90186
:100F60006491E62FF0E0EE0FFF1FE85EFE4F8591E3
:100F700094919F878E87DF91CF911F910895FC01F7
:100F80001382128288EE93E0A0E0B0E08483958320
:100F9000A683B7838FE191E091838083118A108AC1
:100FA000138A128A158A148A178A168A808D4170CC
:100FB000440F8C7F842B808FCF010E94940708956B
:100FC0001F920F920FB60F9211242F933F938F937E
:100FD0009F93AF93BF938091910190919201A091C3
:100FE0009301B0919401309195010196A11DB11D1D
:100FF000232F2D5F2D3720F02D570196A11DB11DF8
:10100000209395018093910190939201A093930175
:10101000B093940180918D0190918E01A0918F01E8
:10102000B09190010196A11DB11D80938D01909307
:101030008E01A0938F01B0939001BF91AF919F91CA
:101040008F913F912F910F900FBE0F901F90189589
:101050009B01AC017FB7F89480918D0190918E0136
:10106000A0918F01B091900166B5A89B05C06F3F1C
:1010700019F00196A11DB11D7FBFBA2FA92F982F7E
:101080008827860F911DA11DB11D62E0880F991F51
:10109000AA1FBB1F6A95D1F7BC012DC0FFB7F894FA
:1010A00080918D0190918E01A0918F01B09190015E
:1010B000E6B5A89B05C0EF3F19F00196A11DB11D33
:1010C000FFBFBA2FA92F982F88278E0F911DA11D22
:1010D000B11DE2E0880F991FAA1FBB1FEA95D1F747
:1010E000861B970B885E9340C8F2215030404040E9
:1010F000504068517C4F211531054105510571F66D
:101100000895789484B5826084BD84B5816084BD7F
:1011100085B5826085BD85B5816085BDEEE6F0E070
:10112000808181608083E1E8F0E0108280818260CC
:101130008083808181608083E0E8F0E0808181604D
:101140008083E1EBF0E0808184608083E0EBF0E07D
:10115000808181608083EAE7F0E080818460808321
:1011600080818260808380818160808380818068CB
:1011700080831092C1000895982F8E3008F09E5001
:101180009770809113018295880F880F807C892B3E
:1011900080937C0080917A00806480937A008091B3
:1011A0007A0086FDFCCF2091780040917900942F41
:1011B00080E030E0282B392BC9010895CF93DF93CD
:1011C000482F50E0CA018A5C9E4FFC0134914E5D6D
:1011D0005E4FFA018491882369F190E0880F991F8E
:1011E000FC01EC5FFE4FA591B491FC01E25FFE4F64
:1011F000C591D491662351F42FB7F8948C91932F15
:10120000909589238C93888189230BC0623061F487
:101210002FB7F8948C91932F909589238C93888184
:10122000832B88832FBF06C09FB7F8948C91832BA4
:101230008C939FBFDF91CF910895482F50E0CA0152
:10124000865B9E4FFC012491CA018A5C9E4FFC0183
:1012500094914E5D5E4FFA013491332309F440C0FE
:10126000222351F1233071F0243028F42130A1F0F1
:10127000223011F514C02630B1F02730C1F02430EF
:10128000D9F404C0809180008F7703C080918000E2
:101290008F7D8093800010C084B58F7702C084B5A5
:1012A0008F7D84BD09C08091B0008F7703C080918D
:1012B000B0008F7D8093B000E32FF0E0EE0FFF1FB2
:1012C000E25FFE4FA591B4912FB7F894662321F405
:1012D0008C919095892302C08C91892B8C932FBF80
:1012E00008958F929F92AF92BF92CF92DF92EF922A
:1012F000FF920F931F93CF93DF93A82FB0E0CD0100
:101300008A5C9E4FFC018490AE5DBE4FFD018491CE
:10131000662311F4992401C0982C6FEFA62E6FEF6D
:10132000B62E6FEFC62E6FE0D62EA222B322C422B5
:10133000D522682F70E0660F771F685E7E4FEE241F
:10134000FF248701FB01A591B4910BC0EA14FB04B3
:101350000C051D0509F44EC00894E11CF11C011D8B
:10136000111D8C918821891589F30CC0EA14FB04A6
:101370000C051D0509F43EC00894E11CF11C011D7B
:10138000111D03C0FB01A591B4918C918821891591
:1013900069F720E030E040E050E0FB01C591D491D6
:1013A0000FC0DA01C9018E0D9F1DA01FB11F8A1544
:1013B0009B05AC05BD05F1F02F5F3F4F4F4F5F4FD1
:1013C00088818821891569F3CA01B90125E130E0D6
:1013D00040E050E00E9483149B01AC01205F3F4F2E
:1013E0004F4F5F4F84E056954795379527958A95DF
:1013F000D1F704C020E030E040E050E0B901CA017C
:10140000DF91CF911F910F91FF90EF90DF90CF90E0
:10141000BF90AF909F908F90089508951F920F9264
:101420000FB60F9211242F933F934F938F939F9357
:10143000EF93FF938091C00082FD1DC04091C600D4
:101440002091D6013091D7012F5F3F4F2F7330701D
:101450008091D8019091D9012817390771F0E09156
:10146000D601F091D701EA56FE4F40833093D70161
:101470002093D60102C08091C600FF91EF919F9109
:101480008F914F913F912F910F900FBE0F901F9012
:101490001895E0912A02F0912B02E05CFF4F8191B8
:1014A000919120813181821B930B8F739070892BD6
:1014B00011F00E940D0A08951F920F920FB60F921D
:1014C00011242F933F938F939F93EF93FF9320913A
:1014D0001A0230911B0280911C0290911D02281764
:1014E000390731F48091C1008F7D8093C10014C011
:1014F000E0911C02F0911D02E652FE4F2081809186
:101500001C0290911D0201968F73907090931D02A2
:1015100080931C022093C600FF91EF919F918F91C1
:101520003F912F910F900FBE0F901F901895AF9283
:10153000BF92DF92EF92FF920F931F93CF93DF93AF
:10154000EC017A018B01DD24403081EE580780E008
:10155000680780E0780711F0DD24D39491E0A92E8C
:10156000B12CEC89FD89DD2069F0C50108A002C01D
:10157000880F991F0A94E2F7808360E079E08DE399
:1015800090E005C0108260E874E88EE190E0A80168
:1015900097010E94B514215030404040504056956C
:1015A00047953795279580E12030380720F0DD20DA
:1015B00011F0DD24D6CFE889F9893083EA89FB89E7
:1015C000208319A2EE89FF89408121E030E0C90122
:1015D0000C8C02C0880F991F0A94E2F7482B4083B5
:1015E000EE89FF894081C9010D8C02C0880F991FC7
:1015F0000A94E2F7482B4083EE89FF894081C901B4
:101600000E8C02C0880F991F0A94E2F7482B408382
:10161000EE89FF8980810F8C02C0220F331F0A944C
:10162000E2F7209528232083DF91CF911F910F911E
:10163000FF90EF90DF90BF90AF900895DC011C9673
:10164000ED91FC911D97E05CFF4F219131918081DC
:101650009181281B390B2F733070C9010895DC016B
:101660001C96ED91FC911D97E05CFF4F208131812C
:10167000E054F040DF01AE5BBF4F8D919C9111971C
:101680002817390719F42FEF3FEF07C08D919C9170
:10169000E80FF91F8081282F30E0C9010895DC018F
:1016A0001C96ED91FC911D97E05CFF4F20813181EC
:1016B000E054F040DF01AE5BBF4F8D919C911197DC
:1016C0002817390719F42FEF3FEF10C08D919C9127
:1016D0001197E80FF91F20818D919C911197019628
:1016E0008F73907011969C938E9330E0C90108958A
:1016F000DC0191968C919197882339F05496ED9165
:10170000FC915597808186FFF9CF91961C920895A0
:10171000CF93DF93EC01EE85FF85E05CFF4F2081E6
:101720003181E054F0402F5F3F4F2F733070DF0165
:10173000AE5BBF4F8D919C91119728173907D1F35C
:10174000E05CFF4F80819181E054F040E80FF91F89
:101750006083EE85FF85E05CFF4F31832083EE8957
:10176000FF89208181E090E00F8C02C0880F991FD3
:101770000A94E2F7282B208381E089A3EC89FD8974
:1017800080818064808381E090E0DF91CF91089533
:10179000109221021092200288EE93E0A0E0B0E0C7
:1017A0008093220290932302A0932402B0932502F7
:1017B0008FE291E090931F0280931E0286E991E0F0
:1017C00090932B0280932A028AED91E090932D0250
:1017D00080932C0285EC90E090932F0280932E0250
:1017E00084EC90E0909331028093300280EC90E0A2
:1017F000909333028093320281EC90E09093350213
:101800008093340282EC90E090933702809336020A
:1018100086EC90E0909339028093380284E08093C4
:101820003A0283E080933B0287E080933C0285E0AC
:1018300080933D0281E080933E020895CF93DF9331
:101840000E9481080E949A01C9E4DAE00E943401F2
:101850002097E1F30E94490AF9CF0E94CC11089524
:101860000E94CC1108950E942F1108950E942F11FB
:101870000895CF92DF92EF92FF920F931F93CF9331
:10188000DF937C016B018A01C0E0D0E00FC0D6017C
:101890006D916D01D701ED91FC910190F081E02DEA
:1018A000C7010995C80FD91F015010400115110536
:1018B00071F7CE01DF91CF911F910F91FF90EF90C3
:1018C000DF90CF900895EF92FF920F931F938C01BA
:1018D000DC01ED91FC910190F081E02D6DE0099526
:1018E0007C01D801ED91FC910190F081E02DC801BF
:1018F0006AE009959C012E0D3F1DC9011F910F91B2
:10190000FF90EF900895CF93DF93EC01611571057F
:1019100019F420E030E00FC0DB010D900020E9F762
:101920001197A61BB70BE881F9810280F381E02DA6
:10193000AD0109959C01C901DF91CF9108954F92A6
:101940005F927F928F929F92AF92BF92CF92DF92DF
:10195000EF92FF920F931F93DF93CF93CDB7DEB734
:10196000A1970FB6F894DEBF0FBECDBF2C01742E29
:10197000CB01223008F42AE019A231E2C32ED12C87
:10198000CC0EDD1E822E9924AA24BB24672D752F30
:10199000A50194010E94B51479018A01C801B7011B
:1019A000A50194010E948314472D461B0894C10889
:1019B000D1084A3014F4405D01C0495CF60140830F
:1019C000E114F1040105110521F07E2C5F2DC80101
:1019D000DDCFC201B6010E94830CA1960FB6F89428
:1019E000DEBF0FBECDBFCF91DF911F910F91FF9052
:1019F000EF90DF90CF90BF90AF909F908F907F90AF
:101A00005F904F900895DC012115310541F4ED916F
:101A1000FC910190F081E02D642F099508950E94BA
:101A20009F0C0895CF92DF92EF92FF920F931F9336
:101A3000CF93DF93EC016A017B012115310541F45D
:101A4000E881F9810190F081E02D642F09951FC094
:101A50002A303105D1F477FF17C0E881F981019070
:101A6000F081E02D6DE209958C0144275527BA01DC
:101A70004C195D096E097F09CE012AE00E949F0C76
:101A80009801280F391F04C02AE00E949F0C9C0176
:101A9000C901DF91CF911F910F91FF90EF90DF90DF
:101AA000CF9008950E94830C08957F928F929F9209
:101AB000AF92BF92CF92DF92EF92FF920F931F935C
:101AC000CF93DF934C017A018B01722ECB01BA01C7
:101AD000A80197010E947F14882321F0C40165E0CA
:101AE00071E021C0C0E0D0E057016801E894D7F868
:101AF000C601B5012FEF3FEF4FE75FE70E947F146C
:101B0000882351F4C601B5012FEF3FEF4FE75FE7A0
:101B10000E94C912181614F0C1E0D0E0219739F0E4
:101B2000C40169E071E00E94830CEC0193C0C8011C
:101B3000B7012FEF3FEF4FE75FE40E94181418162C
:101B400054F0C801B7012FEF3FEF4FE75FEC0E9461
:101B5000C912882324F4C4016DE071E0E4CFC80108
:101B6000B70120E030E040E050E00E94C91287FD5C
:101B700003C0C0E0D0E00EC0D401ED91FC91019013
:101B8000F081E02DC4016DE20995EC0117FB109581
:101B900017F9109520E030E040E05FE3DD240BC052
:101BA000CA01B90120E030E040E251E40E94CD12C8
:101BB0009B01AC01D394D71498F3C801B7010E94DC
:101BC00065125B016C010E943A137B018C01C40118
:101BD000B801A7012AE030E00E94030DC80FD91F09
:101BE000772039F0C40161E171E00E94830CC80FD5
:101BF000D91FC801B7010E9466139B01AC01C60141
:101C0000B5010E94641224C020E030E040E251E4BB
:101C10000E941C147B018C010E9435135B016C0136
:101C2000CC24B7FCC094DC2CC401B601A5012AE089
:101C300030E00E94120DC80FD91FC601B5010E94E5
:101C400068139B01AC01C801B7010E9464127A9429
:101C50007720D1F6CE01DF91CF911F910F91FF90A8
:101C6000EF90DF90CF90BF90AF909F908F907F903C
:101C700008950E94550D0895813041F0813018F08B
:101C80008230D1F409C010926E00089580916F00E7
:101C90008D7F80936F000895809170008D7F809379
:101CA000700081E08093B0008091B100887F8460F3
:101CB0008093B1001092B30008951F93182F809164
:101CC0001401811711F09FEF06C0EEE5F1E0949149
:101CD0008FEF80931401892F0E943C0E812F60E0CA
:101CE0000E941D091F9108951F920F920FB60F9227
:101CF00011242F933F934F935F936F937F938F9311
:101D00009F93AF93BF93EF93FF9380914E02909177
:101D10004F02A0915002B09151020097A105B10568
:101D200051F1E0915202F09153028081909154025E
:101D30008927808380914E0290914F02A09150029A
:101D4000B0915102181619061A061B06C4F48091A8
:101D50004E0290914F02A0915002B0915102019712
:101D6000A109B10980934E0290934F02A0935002B3
:101D7000B093510204C0809114010E945D0EFF9146
:101D8000EF91BF91AF919F918F917F916F915F91F3
:101D90004F913F912F910F900FBE0F901F9018956C
:101DA0002F923F925F926F927F928F929F92AF920B
:101DB000BF92CF92DF92EF92FF920F931F93DF9328
:101DC000CF9300D000D0CDB7DEB7A82F1B01298359
:101DD0003A834B835C83809114018A1721F4EEE5EA
:101DE000F1E0549082C08F3F09F0DAC1A093140152
:101DF000EEE5F1E054902FEF521609F4D1C181E0E5
:101E0000581639F192E0591609F449C0552009F0E5
:101E10006CC014BC15BC84B5826084BD85B581607E
:101E200085BD2A2F30E0F901EE5DFE4FE491F0E030
:101E3000EE0FFF1FE25FFE4F859194919093450254
:101E4000809344022A5C3E4FF901849180934602BC
:101E50004EC01092800010928100809181008860B5
:101E600080938100809181008160809381002A2F7E
:101E700030E0F901EE5DFE4FE491F0E0EE0FFF1F60
:101E8000E25FFE4F8591949190934C0280934B02B8
:101E90002A5C3E4FF901849180934D0228C0109234
:101EA000B0001092B1008091B00082608093B000C9
:101EB0008091B10081608093B1002A2F30E0F90158
:101EC000EE5DFE4FE491F0E0EE0FFF1FE25FFE4F8C
:101ED0008591949190935302809352022A5C3E4FD5
:101EE000F90184918093540202C057FC59C18A2F92
:101EF00061E00E94DE08552021F0F2E05F1609F053
:101F0000BEC031018824992460E072E18AE790E044
:101F1000A40193010E94D71459016A018601750139
:101F20000894E108F108010911092FEFE216F10404
:101F30000105110509F008F499C060E472E48FE02E
:101F400090E0A40193010E94D71479018A010894BA
:101F5000E108F1080109110982E05816C1F49FEF68
:101F6000E916F1040105110509F008F484C060E9DF
:101F700070ED83E090E0A40193010E94D7147901F1
:101F80008A010894E108F1080109110983E0AFEF23
:101F9000EA16F1040105110509F008F468C068E4C7
:101FA00078EE81E090E0A40193010E94D7147901BA
:101FB0008A010894E108F10801091109552011F47A
:101FC00083E01DC0B2E05B1611F084E018C0EFEFB3
:101FD000EE16F1040105110509F008F4DFC064E212
:101FE00074EF80E090E0A40193010E94D71479017E
:101FF0008A010894E108F1080109110985E0FFEF61
:10200000EF16F1040105110591F188F162E17AE71B
:1020100080E090E0A40193010E94D71479018A0125
:102020000894E108F10801091109552011F086E032
:1020300001C084E02FEFE216F10401051105B9F0AB
:10204000B0F0C601B50120E034E040E050E00E946D
:10205000D71479018A010894E108F10801091109EE
:10206000552011F087E008C085E003C081E05520CD
:1020700019F485BD3AC082E08093B10036C05101A9
:10208000CC24DD2460E072E18AE790E0A6019501AE
:102090000E94D71479018A010894E108F108010926
:1020A000110980E0E81680E0F80681E0080780E08A
:1020B000180710F491E010C068E478EE81E090E039
:1020C000A60195010E94D71479018A010894E108BC
:1020D000F1080109110993E0A1E05A1631F4809149
:1020E0008100887F982B9093810089819A81AB81B0
:1020F000BC810097A105B10529F48FEF9FEFAFEFE9
:10210000BFEF13C0220C331CB10180E090E02981A5
:102110003A814B815C810E94831428EE33E040E0D9
:1021200050E00E94B514C901DA01E1E05E16A1F0A9
:10213000F2E05F1619F1552099F5E7BC8093400253
:1021400090934102A0934202B093430280916E00AB
:10215000826080936E0024C0F0928900E092880033
:102160008093470290934802A0934902B0934A0299
:1021700080916F00826080936F0012C0E092B30084
:1021800080934E0290934F02A0935002B09351025D
:102190008091700082608093700002C084E06CCFF8
:1021A0000F900F900F900F90CF91DF911F910F9193
:1021B000FF90EF90DF90CF90BF90AF909F908F9067
:1021C0007F906F905F903F902F9008952F923F9255
:1021D0004F925F926F927F928F929F92AF92BF9237
:1021E000CF92DF92EF92FF920F931F93DF93CF93E3
:1021F000CDB7DEB73B014C0119012A016D897E89FB
:102200008F89988D6A197B098C099D09621A730A56
:10221000840A950AA40193010E948314E218F3082A
:1022200004091509A80197010E94D7142A0D3B1D26
:102230004C1D5D1DB901CA01CF91DF911F910F9116
:10224000FF90EF90DF90CF90BF90AF909F908F90D6
:102250007F906F905F904F903F902F9008950F93D5
:102260001F93CF93DF93BC018230910510F462E09D
:1022700070E0E0915702F0915802A0E0B0E040E039
:1022800050E024C08081918186179707D0F086178F
:10229000970771F482819381109729F013969C938C
:1022A0008E9312972CC0909358028093570227C0A8
:1022B0004115510519F08417950718F4EF018D01A8
:1022C000AC01DF01828193819C01F9013097D1F645
:1022D00041155105F9F0CA01861B970B8430910511
:1022E00080F48A819B810115110521F0F801938307
:1022F000828304C09093580280935702FE01329665
:1023000045C0FE01E80FF91F61937193029799830D
:1023100088833CC08091550290915602892B41F4EC
:102320008091170190911801909356028093550265
:102330004091190150911A014115510541F44DB7D1
:102340005EB78091150190911601481B590B2091A1
:1023500055023091560224173507B0F4CA01821B8A
:10236000930B8617970780F0AB014E5F5F4F841782
:10237000950750F0420F531F509356024093550259
:10238000F9016193719302C0E0E0F0E0CF01DF91C9
:10239000CF911F910F910895CF93DF939C010097E8
:1023A00009F48FC0EC0122971B821A8260915702B8
:1023B000709158026115710581F488819981820FAD
:1023C000931F20915502309156022817390739F58D
:1023D000D0935602C093550274C0DB0140E050E038
:1023E000AC17BD0708F1BB83AA83FE01219131918F
:1023F000E20FF31FAE17BF0779F48D919C911197EF
:10240000280F391F2E5F3F4F3983288312968D91F5
:102410009C9113979B838A834115510571F4D09346
:102420005802C09357024DC012968D919C911397FC
:10243000AD01009711F0DC01D3CFDA011396DC93E4
:10244000CE931297FA0121913191E20FF31FCE172B
:10245000DF0769F488819981280F391F2E5F3F4F6C
:10246000FA01318320838A819B8193838283E0E018
:10247000F0E0DB0112968D919C911397009719F073
:10248000BC01FD01F6CFAB014E5F5F4FDB018D91CB
:102490009C91840F951F2091550230915602281768
:1024A000390779F4309729F41092580210925702A4
:1024B00002C0138212824250504050935602409301
:1024C0005502DF91CF9108955058BB27AA270ED00F
:1024D00075C166D130F06BD120F031F49F3F11F41B
:1024E0001EF45BC10EF4E095E7FB51C1E92F77D1F3
:1024F00080F3BA17620773078407950718F071F421
:102500009EF58FC10EF4E0950B2EBA2FA02D0B0176
:10251000B90190010C01CA01A0011124FF27591B28
:1025200099F0593F50F4503E68F11A16F040A22F2E
:10253000232F342F4427585FF3CF4695379527959F
:10254000A795F0405395C9F77EF41F16BA0B620B9E
:10255000730B840BBAF09150A1F0FF0FBB1F661FE5
:10256000771F881FC2F70EC0BA0F621F731F841F28
:1025700048F4879577956795B795F7959E3F08F04E
:10258000B3CF9395880F08F09927EE0F979587950D
:102590000895D9D008F481E008950CD00FC107D177
:1025A00040F0FED030F021F45F3F19F0F0C051113F
:1025B00039C1F3C014D198F39923C9F35523B1F36A
:1025C000951B550BBB27AA2762177307840738F0A2
:1025D0009F5F5F4F220F331F441FAA1FA9F333D001
:1025E0000E2E3AF0E0E830D091505040E695001CB5
:1025F000CAF729D0FE2F27D0660F771F881FBB1F71
:10260000261737074807AB07B0E809F0BB0B802D4A
:10261000BF01FF2793585F4F2AF09E3F510568F096
:10262000B6C000C15F3FECF3983EDCF3869577952A
:102630006795B795F7959F5FC9F7880F911D969598
:10264000879597F90895E1E0660F771F881FBB1FF4
:10265000621773078407BA0720F0621B730B840BA1
:10266000BA0BEE1F88F7E095089504D06894B11175
:10267000D9C00895BCD088F09F5790F0B92F992702
:10268000B751A0F0D1F0660F771F881F991F1AF07D
:10269000BA95C9F712C0B13081F0C3D0B1E0089546
:1026A000C0C0672F782F8827B85F39F0B93FCCF3C7
:1026B000869577956795B395D9F73EF49095809573
:1026C000709561957F4F8F4F9F4F0895E89409C093
:1026D00097FB3EF490958095709561957F4F8F4F55
:1026E0009F4F9923A9F0F92F96E9BB279395F6956B
:1026F000879577956795B795F111F8CFFAF4BB0FE9
:1027000011F460FF1BC06F5F7F4F8F4F9F4F16C04C
:10271000882311F096E911C0772321F09EE8872FD6
:10272000762F05C0662371F096E8862F70E060E092
:102730002AF09A95660F771F881FDAF7880F96950B
:10274000879597F90895990F0008550FAA0BE0E8AF
:10275000FEEF16161706E807F907C0F01216130663
:10276000E407F50798F0621B730B840B950B39F4A3
:102770000A2661F0232B242B252B21F408950A2609
:1027800009F4A140A6958FEF811D811D089597F949
:102790009F6780E870E060E008959FEF80EC089507
:1027A00000240A9416161706180609060895002430
:1027B0000A9412161306140605060895092E0394AA
:1027C000000C11F4882352F0BB0F40F4BF2B11F41E
:1027D00060FF04C06F5F7F4F8F4F9F4F089557FD7D
:1027E0009058440F551F59F05F3F71F04795880F7F
:1027F00097FB991F61F09F3F79F087950895121616
:1028000013061406551FF2CF4695F1DF08C01616C1
:1028100017061806991FF1CF869571056105089472
:102820000895E894BB2766277727CB0197F9089589
:102830008ADF08F48FEF08950BD0C0CFB1DF28F006
:10284000B6DF18F0952309F0A2CFA7CF1124EACF65
:10285000C6DFA0F3959FD1F3950F50E0551F629FFF
:10286000F001729FBB27F00DB11D639FAA27F00DE9
:10287000B11DAA1F649F6627B00DA11D661F829F10
:102880002227B00DA11D621F739FB00DA11D621FF5
:10289000839FA00D611D221F749F3327A00D611D12
:1028A000231F849F600D211D822F762F6A2F1124F4
:1028B0009F5750408AF0E1F088234AF0EE0FFF1F47
:1028C000BB1F661F771F881F91505040A9F79E3F7E
:1028D000510570F05CCFA6CF5F3FECF3983EDCF380
:1028E000869577956795B795F795E7959F5FC1F7BB
:1028F000FE2B880F911D9695879597F9089523DFF4
:10290000880B990B0895629FD001739FF001829FFD
:10291000E00DF11D649FE00DF11D929FF00D839F6E
:10292000F00D749FF00D659FF00D9927729FB00D0B
:10293000E11DF91F639FB00DE11DF91FBD01CF011E
:102940001124089597FB092E07260AD077FD04D09D
:1029500049D006D000201AF4709561957F4F0895F4
:10296000F6F7909581959F4F0895A1E21A2EAA1B24
:10297000BB1BFD010DC0AA1FBB1FEE1FFF1FA2172F
:10298000B307E407F50720F0A21BB30BE40BF50B2C
:10299000661F771F881F991F1A9469F760957095B5
:1029A000809590959B01AC01BD01CF01089597FBE7
:1029B000092E05260ED057FD04D0D7DF0AD0001C03
:1029C00038F450954095309521953F4F4F4F5F4FCC
:1029D0000895F6F790958095709561957F4F8F4F8C
:1029E0009F4F0895AA1BBB1B51E107C0AA1FBB1F25
:1029F000A617B70710F0A61BB70B881F991F5A958B
:102A0000A9F780959095BC01CD010895EE0FFF1FA9
:102A10000590F491E02D099411E0C4E6D1E004C0E2
:102A2000FE010E9408152296C636D107C9F7F89410
:022A3000FFCFD6
:102A320050573A20006E616E00696E66006F7666CE
:102A4200002E0001FF800059020000000000005F1C
:102A520007390C450724077807670700000000883C
:0C2A62000B390C1E0B4F0B2F0B780B00D8
:00000001FF
