:100000000C94C5010C94ED010C94ED010C94ED01E0
:100010000C94ED010C94ED010C94ED010C94ED01A8
:100020000C94ED010C941E080C940F110C94961175
:100030000C94ED010C94ED010C94ED010C94ED0188
:100040000C94ED010C94ED010C94ED010C94ED0178
:100050000C94ED010C94ED010C94ED010C94D3097A
:100060000C94ED010C94ED010C94ED010C94ED0158
:100070000C94ED010C94ED010C94ED010C94ED0148
:100080000C94ED010C94ED010C94ED010C94ED0138
:100090000C94ED010C94ED010C94ED010C94ED0128
:1000A0000C94ED010C94ED010C94ED0100C20100E3
:1000B0000100110011000C0000E100000A00250001
:1000C0002500210000960000190039003900360093
:1000D000127A00001F0046004600440080700000B5
:1000E00022004D004D004A00004B00003600750014
:1000F00075007200403800004A009C009C00990086
:10010000802500007200EC00EC00E900C012000045
:10011000E900DA01DA01D70160090000D701B6036E
:10012000B603B303B0040000B3036E076E076B079A
:10013000580200006E07DC0EDC0ED80E2C01000009
:10014000DC0EC11DC11DBE1D0000000024002700E3
:100150002A002D00300000000000250028002B00A0
:100160002E003100000000002300260029002C0092
:100170002F00040404040403040502020202040321
:100180000202020206060606060604040202020431
:100190000408020110408040102040804080080286
:1001A0000401804020100201108010204040000017
:1001B000000200080E0000030401000B0000000014
:1001C0000000000000000000000000000706050419
:1001D0000100080A0B0C0D09080B000202020100C5
:1001E000090400000102020000052400100105249A
:1001F000010101042402060524060001070581030C
:1002000010004009040100020A0000000705020274
:100210004000000705830240000004030904220394
:10022000410072006400750069006E006F002000DC
:100230004D006900630072006F0020002000200064
:100240001803410072006400750069006E006F00C1
:1002500020004C004C00430012010002000000404E
:100260004123378000010102000112010002020057
:1002700000404123378000010102000100C180815C
:10028000C105010902A1010901A1008501050919A2
:10029000012903150025019503750181029501755A
:1002A00005810305010930093109381581257F755C
:1002B0000895038106C0C005010906A10185020554
:1002C0000719E029E71500250175019508810295B8
:1002D0000175088103950675081500256505071940
:1002E0000029658100C00904020001030000000923
:1002F000210101000122650007058403400001007F
:10030000000000000000002A2B2800000000000070
:100310000000000000000000000000000000002CB1
:100320009EB4A0A1A2A434A6A7A5AE362D37382727
:100330001E1F20212223242526B333B62EB7B89FB3
:100340008485868788898A8B8C8D8E8F90919293F5
:100350009495969798999A9B9C9D2F3130A3AD3593
:100360000405060708090A0B0C0D0E0F10111213D5
:100370001415161718191A1B1C1DAFB1B0B50000C3
:100380003F02A90C49109714380211241FBECFEF69
:10039000DAE0DEBFCDBF11E0A0E0B1E0EAEAF0E3D1
:1003A00002C005900D92A838B107D9F712E0A8E86D
:1003B000B1E001C01D92A236B107E1F713E0C8E831
:1003C000D3E004C02297FE010E944418C038D10730
:1003D000C9F70E94740D0C9448180C940000FC019D
:1003E00088279927E89421912032E9F3293010F0E9
:1003F0002E30C8F32B3241F02D3239F4689404C00A
:100400000E940D02820F911D219120532A30C0F3CA
:100410001EF4909581959F4F08957AE0979F902DB7
:10042000879F802D910D11240895EF920F931F93B4
:100430008130910581F46F5F7F4FB1F488E891E0DE
:1004400068E040E050E020E030E000E010E0EE2422
:100450000E947E0709C0892B39F46F5F7F4F21F41A
:1004600088E891E00E9443071F910F91EF90089553
:1004700080E090E06FEF7FEF0E941502089581E029
:1004800090E06FEF7FEF0E9415020895AF92BF9248
:10049000CF92DF92EF92FF920F931F9388E891E043
:1004A0000E94A3067B018C016093950170939601D5
:1004B0008093970190939801A0909901B0909A0130
:1004C000C0909B01D0909C01A60195010E94A015AF
:1004D0000E9471169B0177FF03C0309521953F4F15
:1004E000B901882777FD8095982F0E94A416209146
:1004F00043013091440140914501509146010E94D1
:100500005417181684F4A0929501B0929601C092E7
:100510009701D0929801E0929901F0929A0100938C
:100520009B0110939C01C0909501D0909601E090A2
:100530009701F0909801C701B60120E030E040EA51
:1005400052E40E94051688235CF40F2EF0E0CF2EB3
:10055000F0E0DF2EF0EAEF2EF2E4FF2EF02D14C0D3
:10056000C701B60120E030E048E453E40E9454178C
:10057000181654F40F2EF0E0CF2EF0E0DF2EF8E442
:10058000EF2EF3E4FF2EF02DC0929D01D0929E013C
:10059000E0929F01F092A00100D000D00DB71EB7ED
:1005A0000F5F1F4FC701B6010E94711624E630E0AD
:1005B00040E050E0F801208331834283538320E5FB
:1005C00030E040E050E0E8ECEE2EF12C012D112D52
:1005D000AA24BB2465010E94DF120E94A4167B019D
:1005E0008C0160939D0170939E0180939F01909375
:1005F000A001A090A101B090A201C090A301D09051
:10060000A4010F900F900F900F90A60195010E94EA
:100610005417181684F4C601B50120E030E040E814
:100620005FE30E94A1156093A1017093A2018093E2
:10063000A3019093A401A090A101B090A201C09049
:10064000A301D090A401C801B701A60195010E94A1
:100650000516882384F4C601B50120E030E040E8A7
:100660005FE30E94A0156093A1017093A2018093A3
:10067000A3019093A4016091A1017091A2018091C6
:10068000A3019091A4012091A5013091A601409170
:10069000A7015091A8010E940516882309F448C0BB
:1006A0008AE392E060E071E00E94AC0E4091A1010B
:1006B0005091A2016091A3017091A4018AE392E09C
:1006C00022E030E00E94930F8AE392E068E271E05A
:1006D0000E94AC0E40919501509196016091970156
:1006E000709198018AE392E022E030E00E94930F3B
:1006F0008AE392E062E371E00E94AC0E8AE392E04A
:100700000E94BD0D8091A1019091A201A091A30131
:10071000B091A4018093A5019093A601A093A70195
:10072000B093A80162E370E080E090E00E941B0AB1
:100730001F910F91FF90EF90DF90CF90BF90AF90FF
:1007400008958AE392E060E875E20E945E0C88E812
:1007500091E00E94A3066093990170939A0180939F
:100760009B0190939C0160939501709396018093F7
:1007700097019093980180E090E0A0E0B0E0809332
:10078000A5019093A601A093A701B093A80180931F
:10079000A1019093A201A093A301B093A40180931F
:1007A0009D0190939E01A0939F01B093A001089595
:1007B0003F924F925F926F927F928F929F92AF92F1
:1007C000BF92CF92DF92EF92FF920F931F93CF933E
:1007D000DF93FC01362EA385B4856C9011967C9036
:1007E000119712968C90129713969C90139787816D
:1007F000482E5524ED01EE24E394FF24F39401E008
:1008000010E02FC0DC80CD80BE80AF806D2D7C2DB0
:100810008B2D9A2D288139814A815B810E94051692
:10082000882319F0FF24F39401C0F3946D2D7C2DDF
:100830008B2D9A2D9301A4010E940516882311F493
:10084000E3940CC0332019F4EF1418F007C0FE1421
:1008500029F46D2C7C2C8B2C9A2CEF2C0F5F1F4FC6
:1008600024960415150574F2B301C401DF91CF91EC
:100870001F910F91FF90EF90DF90CF90BF90AF90BE
:100880009F908F907F906F905F904F903F900895D2
:10089000EF92FF920F931F93CF93DF93EC0161E0F0
:1008A0000E94D8037B018C01CE0160E00E94D80336
:1008B0009B01AC01B701C8010E940516882379F09D
:1008C0008F81869590E0880F991F880F991FEB857F
:1008D000FC85E80FF91FE080F18002811381B701E8
:1008E000C801DF91CF911F910F91FF90EF90089574
:1008F0008F929F92AF92BF92CF92DF92EF92FF9230
:100900000F931F93DF93CF93CDB7DEB77C018DB6E6
:100910009EB6A62EBB248DB79EB78A199B090FB62B
:10092000F8949EBF0FBE8DBFCDB6DEB60894C11C35
:10093000D11CF701A185B285ED91FC91119702843C
:10094000F385E02DCD010995D7011996ED91FC9124
:100950001A97A081B18114962D913C911597CF01E2
:10096000F9010995892B81F3D7011996ED91FC9135
:100970001A97A081B18116962D913C911797CF01BE
:10098000F901099582359105F9F600E010E021C0E2
:10099000D7011996ED91FC911A97A081B181149617
:1009A0002D913C911597CF01F9010995892B81F380
:1009B000F701A185B285ED91FC9111970680F78131
:1009C000E02DCD010995F601E00FF11F80830F5F47
:1009D0001F4F0A151B05E4F2C6010E94EF010FB676
:1009E000F8949EBE0FBE8DBECF91DF911F910F91E7
:1009F000FF90EF90DF90CF90BF90AF909F908F903F
:100A00000895FC018181928181309105D9F1823074
:100A1000910509F478C0009709F0AFC083819481F3
:100A200081309105B9F08230910519F1009709F0F4
:100A3000A4C0808161E020E432E44FE050E00E94F5
:100A4000C20B0E94A21620E030E043E153E40E9472
:100A5000091634C0808161E020E432E44FE050E0C8
:100A60000E94C20B0E94A21620E030E048E652E449
:100A700080C0808161E020E432E44FE050E00E94D9
:100A8000C20B71C08381948181309105F1F0823075
:100A9000910539F1009709F070C080810E94CA0A5F
:100AA000AA2797FDA095BA2FBC01CD010E94A416DC
:100AB00020E030E040E05FE30E9458170E9471168A
:100AC000882777FD8095982F32C080810E94CA0ABE
:100AD000AA2797FDA095BA2FBC01CD010E94A416AC
:100AE0004AC080810E94CA0AAA2797FDA095BA2F02
:100AF000BC01CD010E94A41620E030E040EA50E4A1
:100B00000E94581732C08381948181309105C1F0D1
:100B10008230910501F1009781F5CF0163E00E94D9
:100B20007804AA2797FDA095BA2FBC01CD010E9499
:100B3000A4162CE53FE842E250E40E9458171BC07F
:100B4000CF0163E00E947804A0E0B0E0BC01CD01D9
:100B50000E94A21610C0CF0164E00E947804A0E0B9
:100B6000B0E0BC01CD010E94A21620E030E040E2DE
:100B700051E40E940916E62F692F2E2F372F482F98
:100B8000562FB901CA0108952F923F924F925F925A
:100B90006F927F928F929F92AF92BF92CF92DF928D
:100BA000EF92FF920F931F93DF93CF9300D000D06B
:100BB00000D0CDB7DEB75C01CC24DD24EE24FF24C9
:100BC0002CC0D5011B960D911C911C970E0D1F1D5D
:100BD000C5010E940105F8016083718382839383BC
:100BE000D50111968D919C911297019779F41796E2
:100BF0008C91179790E00197C816D90639F018968E
:100C00006C9170E080E090E00E941B0A0894C11C87
:100C1000D11CE4E0F0E0EE0EFF1ED50117968C919A
:100C200090E0C816D9066CF2E1E02E2E312C74E06B
:100C3000472E512C68C0F50123853485240D351DC0
:100C4000D9018D919D910D90BC91A02D89839A839E
:100C5000AB83BC83F1013197FE83ED836CEF662E8D
:100C60006FEF762E640C751C420116C0080D191D1D
:100C7000D801CD92DD92ED92FC921397ED81FE8129
:100C80003197FE83ED838CEF9FEF680E791E880EFF
:100C9000991EEF5FFF4FB1F0D5011B960D911C918E
:100CA0001C97F801E60DF71DC080D180E280F3802B
:100CB00069817A818B819C81A70196010E9405162A
:100CC00087FDD4CFED81FE813196EE0FFF1FEE0F31
:100CD000FF1FFE83ED83D5011B96ED91FC911C97C0
:100CE0008D819E81E80FF91F89819A81AB81BC813A
:100CF00080839183A283B3830894211C311CA4E0D8
:100D0000B0E04A0E5B1EF501878190E02816390697
:100D10000CF491CF26960FB6F894DEBF0FBECDBF70
:100D2000CF91DF911F910F91FF90EF90DF90CF90C7
:100D3000BF90AF909F908F907F906F905F904F90FB
:100D40003F902F900895CF92DF92EF92FF920F93F2
:100D50001F93CF93DF93EC010E94C4058D819E8188
:100D60008330910509F1843091053CF4813091057F
:100D700061F0029709F076C014C08430910509F43F
:100D80006EC0059709F06EC04AC08F81869590E0CD
:100D9000880F991F880F991FEB85FC85E80FF91FB5
:100DA00063C0CE0161E002C0CE0160E00E94D803C2
:100DB0007B018C015DC0CE010E9401057B018C018D
:100DC00060E070E040E050E012C0FD01E40FF51F6C
:100DD0004C5F5F4FA40FB51F8D919D910D90BC91FD
:100DE000A02D80839183A283B3836F5F7F4F8F8118
:100DF000282F30E0C9010197AB85BC8568177907BA
:100E000024F32C193D09220F331F220F331FA20F89
:100E1000B31FED92FD920D931C93139703C0B1E0A5
:100E2000CB2ED12CEB85FC85E080F18002811381F3
:100E30008F819601281B3109C901880F991F880FDE
:100E4000991FE81BF90BB701C8012081318142814C
:100E500053810E940516882309F0ADCF09C0CE0149
:100E60000E944804EB85FC85E080F18002811381BB
:100E7000B701C801DF91CF911F910F91FF90EF90C3
:100E8000DF90CF900895CF93DF93EC018B859C8505
:100E9000009711F00E94870D89859A850E948A0D1E
:100EA000DF91CF910895CF93DF93EC018D819E81E7
:100EB00081309105A4F0853091051CF0059779F4F7
:100EC00009C08F81882311F485E00AC080FF09C022
:100ED0008F5F06C08F81882321F482E001C081E00A
:100EE0008F838F8190E0880F991F880F991F0E9430
:100EF0008D0D9C878B87DF91CF910895EF92FF92A4
:100F00000F931F93CF93DF93EC01F62E68835A83E0
:100F100049833C832B831E830D83EF82423051052E
:100F2000A9F489E190E00E94900D182F092F6F2DF0
:100F300041E00E94B20919870A87812F902F40E86B
:100F400055E260E070E00E94480804C0862F60E02F
:100F50000E94020BCE010E945307DF91CF911F9197
:100F60000F91FF90EF9008950F931F93CF93DF930E
:100F7000FC01708D76957170A685B7859585772370
:100F800029F08C91892309F454C004C08C918923E1
:100F900009F04FC08089918920E001972FEF8F3FA2
:100FA0009207D9F7C289D389A685B785158560E0F0
:100FB00031E040E050E000E0CE01202F01972FEF1C
:100FC0008F3F9207D9F78C91812311F0632B03C0D7
:100FD000832F80956823330F4F5F5F4F4830510553
:100FE00059F78489958920E001972FEF8F3F920769
:100FF000D9F7711160958091EB012091EC0190E09F
:1010000001968F73907030E08217930779F0E0912A
:10101000EB01F0E0E555FE4F60838091EB0190E03D
:1010200001968F7390708093EB0103C0808D816077
:10103000808FDF91CF911F910F9108951F920F9292
:101040000FB60F9211242F933F934F935F936F939B
:101050007F938F939F93AF93BF93EF93FF93809171
:10106000A9019091AA01009711F00E94B407FF9185
:10107000EF91BF91AF919F918F917F916F915F9110
:101080004F913F912F910F900FBE0F901F90189589
:10109000CF92DF92EF92FF920F931F93CF93DF9344
:1010A000EC017A018B011F8A1E8A1D8A1C8A1B8A09
:1010B0001A8A198A188A20E030E06901CC0CDD1CFC
:1010C000C20ED31EB601660F771F660F771FAB01E6
:1010D00044555F4FFA0185919591A591B4918E1574
:1010E0009F05A007B107E9F4FB01E055FF4F85918B
:1010F0009491998B888BFB01EE54FF4F85919491CD
:101100009B8B8A8BFB01EC54FF4F859194919D8BB7
:101110008C8BFB01EA54FF4F859194919F8B8E8BB2
:1011200006C02F5F3F4F2D30310509F0C6CF8C89A7
:101130009D89892B09F457C09C85892F885084305C
:1011400038F08650843020F09A51933008F043C034
:10115000809168008160809368002C85922F985060
:10116000943090F0822F8E50843070F08C50833009
:1011700008F451C0A0E0B0E0833018F0E0E0F0E007
:1011800007C0EBE6F0E004C0EBE6F0E0ABE6B0E071
:101190004081943020F430E02450304013C02E3091
:1011A00011F488E016C02F3011F482E012C0203113
:1011B00011F484E00EC0213111F481E00AC030E066
:1011C0002651304081E090E002C0880F991F2A9597
:1011D000E2F7842B8C938E899F8920E001972FEF73
:1011E0008F3F9207D9F78091A9019091AA018C179E
:1011F0009D07A1F0888D8E7F888F9FB7F8941092FD
:10120000EB018091EB018093EC01D093AA01C09394
:10121000A9019FBF03C0ABE6B0E0AECFDF91CF9195
:101220001F910F91FF90EF90DF90CF900895209144
:10123000A9013091AA012817390731F49091EC01E6
:101240008091EB01981719F42FEF3FEF0FC0E09159
:10125000EC01F0E0E555FE4F20818091EC0190E03B
:1012600001968F7390708093EC0130E0C90108956E
:101270002091A9013091AA012817390719F020E01F
:1012800030E00EC08091EB012091EC0190E0805C99
:101290009F4F821B910960E470E00E94DE179C0161
:1012A000C901089521E030E0FC013383228380E00E
:1012B00090E008952091A9013091AA0128173907DB
:1012C00049F49FB7F8941092EB018091EB01809361
:1012D000EC019FBF08952091A9013091AA01281720
:1012E000390731F49091EC018091EB01981719F4D2
:1012F0002FEF3FEF0AC0E091EC01F0E0E555FE4F23
:101300008081282F332727FD3095C90108951F9329
:10131000CF93DF93EC01162F862F60E00E94020B23
:10132000888D81FD04C0812F61E00E948F0B1C8796
:10133000212F30E0C90180579E4FFC0184918D8799
:101340002E583E4FF9016491E62FF0E0EE0FFF1F9B
:10135000EC59FE4F859194919F878E87DF91CF91B5
:101360001F910895FC011382128288EE93E0A0E0A1
:10137000B0E084839583A683B7838CE591E0918365
:101380008083118A108A138A128A158A148A178A0E
:10139000168A808D4170440F8C7F842B808FCF0103
:1013A0000E94870908951F920F920FB60F92112481
:1013B0002F933F938F939F93AF93BF938091F101AE
:1013C0009091F201A091F301B091F4013091F501F7
:1013D0000196A11DB11D232F2D5F2D3720F02D5714
:1013E0000196A11DB11D2093F5018093F101909309
:1013F000F201A093F301B093F4018091ED0190917B
:10140000EE01A091EF01B091F0010196A11DB11D77
:101410008093ED019093EE01A093EF01B093F00162
:10142000BF91AF919F918F913F912F910F900FBEE0
:101430000F901F9018959B01AC017FB7F894809195
:10144000ED019091EE01A091EF01B091F00166B530
:10145000A89B05C06F3F19F00196A11DB11D7FBF6C
:10146000BA2FA92F982F8827860F911DA11DB11D76
:1014700062E0880F991FAA1FBB1F6A95D1F7BC01B4
:101480002DC0FFB7F8948091ED019091EE01A091ED
:10149000EF01B091F001E6B5A89B05C0EF3F19F050
:1014A0000196A11DB11DFFBFBA2FA92F982F882724
:1014B0008E0F911DA11DB11DE2E0880F991FAA1F7B
:1014C000BB1FEA95D1F7861B970B885E9340C8F245
:1014D000215030404040504068517C4F211531052B
:1014E0004105510571F60895789484B5826084BDF4
:1014F00084B5816084BD85B5826085BD85B5816018
:1015000085BDEEE6F0E0808181608083E1E8F0E077
:101510001082808182608083808181608083E0E8A6
:10152000F0E0808181608083E1E9F0E08081826089
:101530008083808181608083E0E9F0E08081816048
:101540008083E1ECF0E08081846080838081826030
:101550008083808181608083E3ECF0E08081816022
:101560008083E0ECF0E0808182608083E2ECF0E058
:10157000808181608083EAE7F0E0808184608083FD
:1015800080818260808380818160808380818068A7
:1015900080830895823108F08251E82FF0E0E4530F
:1015A000FE4FE49120917B008E2F8695869586953F
:1015B00090E08170907035E0880F991F3A95E1F7BF
:1015C0002F7D282B20937B00E77080914701829527
:1015D000880F880F807C8E2B80937C0080917A000E
:1015E000806480937A0080917A0086FDFCCF209100
:1015F000780040917900942F80E030E0282B392B3F
:10160000C9010895CF93DF93482F50E0CA01805756
:101610009E4FFC0134914E585E4FFA01849188230D
:1016200069F190E0880F991FFC01E85BFE4FA591DE
:10163000B491FC01EA5AFE4FC591D491662351F44E
:101640002FB7F8948C91932F909589238C93888150
:1016500089230BC0623061F42FB7F8948C91932FDB
:10166000909589238C938881832B88832FBF06C014
:101670009FB7F8948C91832B8C939FBFDF91CF9170
:101680000895883071F1893068F4823031F1833007
:1016900020F4813009F042C01DC0833089F08430CD
:1016A000E9F512C08B3059F18C3028F48930E9F01B
:1016B0008A30A1F51EC08C3031F18E3079F529C009
:1016C000809180008F7703C0809180008F7D809310
:1016D0008000089584B58F7702C084B58F7D84BD66
:1016E0000895809190008F7707C0809190008F7D42
:1016F00003C080919000877F80939000089580912F
:10170000C0008F7703C08091C0008F7D8093C000A0
:1017100008958091C200877F8093C2000895FF9250
:101720000F931F93F62E482F50E0CA0182559E4F0B
:10173000FC012491CA0180579E4FFC0114914E5820
:101740005E4FFA0104910023C9F0222319F0822F81
:101750000E94410BE02FF0E0EE0FFF1FEA5AFE4F10
:10176000A591B4919FB7F894FF2021F48C91109526
:10177000812302C08C91812B8C939FBF1F910F916D
:10178000FF9008958F929F92AF92BF92CF92DF9277
:10179000EF92FF920F931F93CF93DF93A82FB0E0A8
:1017A000CD0180579E4FFC018490AE58BE4FFD0185
:1017B0008491662311F4992401C0982C6FEFA62E12
:1017C0006FEFB62E6FEFC62E6FE0D62EA222B32299
:1017D000C422D522682F70E0660F771F6C597E4FA8
:1017E000EE24FF248701FB01A591B4910BC0EA14FC
:1017F000FB040C051D0509F44EC00894E11CF11C06
:10180000011D111D8C918821891589F30CC0EA14E2
:10181000FB040C051D0509F43EC00894E11CF11CF5
:10182000011D111D03C0FB01A591B4918C9188216C
:10183000891569F720E030E040E050E0FB01C591F8
:10184000D4910FC0DA01C9018E0D9F1DA01FB11FD9
:101850008A159B05AC05BD05F1F02F5F3F4F4F4F3B
:101860005F4F88818821891569F3CA01B90125E193
:1018700030E040E050E00E94BF179B01AC01205FC8
:101880003F4F4F4F5F4F84E05695479537952795CB
:101890008A95D1F704C020E030E040E050E0B90183
:1018A000CA01DF91CF911F910F91FF90EF90DF90D0
:1018B000CF90BF90AF909F908F9008950895209102
:1018C0003602309137028091380290913902281BFC
:1018D000390B2F733070C901089520913602309171
:1018E000370280913802909139022817390719F48C
:1018F0002FEF3FEF09C0E0913802F0913902EA5032
:10190000FE4F8081282F30E0C901089520913602D2
:1019100030913702809138029091390228173907A7
:1019200019F42FEF3FEF13C0E0913802F091390224
:10193000EA50FE4F20818091380290913902019641
:101940008F739070909339028093380230E0C90110
:10195000089510923D0210923C0288EE93E0A0E0C0
:10196000B0E080933E0290933F02A0934002B09378
:1019700041028CE691E090933B0280933A020895F5
:101980000F931F93DF93CF930F92CDB7DEB78C01E8
:10199000698380914F01882369F083E0BE016F5F06
:1019A0007F4F41E050E00E946A101816190614F4A7
:1019B0009C0107C081E090E0F8019383828320E0DE
:1019C00030E0C9010F90CF91DF911F910F910895E1
:1019D00083E00E943F100895CF93DF9312C082E00E
:1019E0000E94CA0F2FEF8F3F9207C9F0E091360295
:1019F000F0913702EA50FE4F8083D0933702C093B4
:101A00003602C0913602D09137022196CF73D07042
:101A10008091380290913902C817D90701F7DF91F8
:101A2000CF910895FC0180818E5F808380E868ED0E
:101A300071E042E450E00E94E30F0895FC018181CF
:101A40009081913A59F4813209F04CC080E068E409
:101A500071E047E050E00E94E30F42C0913209F08C
:101A600041C0803239F488E491E067E070E00E9480
:101A7000271036C0823209F035C0828180934F0131
:101A80008091480190914901A0914A01B0914B0188
:101A9000805B9440A040B04019F580914F0180FDDB
:101AA00012C087E797E790930108809300082BE026
:101AB00088E190E00FB6F894A895809360000FBE7F
:101AC000209360000DC088E10FB6F8948093600009
:101AD000109260000FBEA8951092010810920008A5
:101AE00081E0089580E00895CF93DF930E94740A07
:101AF00080E592E00E944A100E94A103C0E0D0E07D
:101B00000E9446022097E1F30E940000F9CF0E9454
:101B1000C51308950E94C51308950E9428130895BF
:101B20000E9428130895CF92DF92EF92FF920F93B5
:101B30001F93CF93DF937C016B018A01C0E0D0E05B
:101B40000FC0D6016D916D01D701ED91FC9101900F
:101B5000F081E02DC7010995C80FD91F0150104031
:101B60000115110571F7CE01DF91CF911F910F91F2
:101B7000FF90EF90DF90CF900895EF92FF920F9338
:101B80001F938C01DC01ED91FC910190F081E02D1F
:101B90006DE009957C01D801ED91FC910190F081F7
:101BA000E02DC8016AE009959C012E0D3F1DC90179
:101BB0001F910F91FF90EF900895CF93DF93EC0169
:101BC0006115710519F420E030E00FC0DB010D90C4
:101BD0000020E9F71197A61BB70BE881F981028075
:101BE000F381E02DAD0109959C01C901DF91CF91F1
:101BF00008954F925F927F928F929F92AF92BF9281
:101C0000CF92DF92EF92FF920F931F93DF93CF93C8
:101C1000CDB7DEB7A1970FB6F894DEBF0FBECDBF2C
:101C20002C01742ECB01223008F42AE019A231E2F3
:101C3000C32ED12CCC0EDD1E822E9924AA24BB24C7
:101C4000672D752FA50194010E94F11779018A0172
:101C5000C801B701A50194010E94BF17472D461B7B
:101C60000894C108D1084A3014F4405D01C0495CB1
:101C7000F6014083E114F1040105110521F07E2CE9
:101C80005F2DC801DDCFC201B6010E94DD0DA19616
:101C90000FB6F894DEBF0FBECDBFCF91DF911F917D
:101CA0000F91FF90EF90DF90CF90BF90AF909F90FB
:101CB0008F907F905F904F900895DC012115310542
:101CC00041F4ED91FC910190F081E02D642F099594
:101CD00008950E94F90D0895CF92DF92EF92FF923E
:101CE0000F931F93CF93DF93EC016A017B012115C2
:101CF000310541F4E881F9810190F081E02D642FF4
:101D000009951FC02A303105D1F477FF17C0E8814B
:101D1000F9810190F081E02D6DE209958C01442755
:101D20005527BA014C195D096E097F09CE012AE0D9
:101D30000E94F90D9801280F391F04C02AE00E9463
:101D4000F90D9C01C901DF91CF911F910F91FF9077
:101D5000EF90DF90CF9008950E94DD0D08957F925F
:101D60008F929F92AF92BF92CF92DF92EF92FF92AB
:101D70000F931F93CF93DF934C017A018B01722E47
:101D8000CB01BA01A80197010E94BB17882321F05B
:101D9000C40165E371E021C0C0E0D0E057016801F3
:101DA000E894D7F8C601B5012FEF3FEF4FE75FE7A3
:101DB0000E94BB17882351F4C601B5012FEF3FEFF6
:101DC0004FE75FE70E940516181614F0C1E0D0E057
:101DD000219739F0C40169E371E00E94DD0DEC0147
:101DE00093C0C801B7012FEF3FEF4FE75FE40E94B8
:101DF0005417181654F0C801B7012FEF3FEF4FE703
:101E00005FEC0E940516882324F4C4016DE371E0A1
:101E1000E4CFC801B70120E030E040E050E00E948C
:101E2000051687FD03C0C0E0D0E00EC0D401ED91DF
:101E3000FC910190F081E02DC4016DE20995EC0167
:101E400017FB109517F9109520E030E040E05FE3B4
:101E5000DD240BC0CA01B90120E030E040E251E4CA
:101E60000E9409169B01AC01D394D71498F3C801C2
:101E7000B7010E94A1155B016C010E9476167B01DF
:101E80008C01C401B801A7012AE030E00E945D0E78
:101E9000C80FD91F772039F0C40161E471E00E94B6
:101EA000DD0DC80FD91FC801B7010E94A2169B0102
:101EB000AC01C601B5010E94A01524C020E030E0AD
:101EC00040E251E40E9458177B018C010E94711678
:101ED0005B016C01CC24B7FCC094DC2CC401B601BE
:101EE000A5012AE030E00E946C0EC80FD91FC60180
:101EF000B5010E94A4169B01AC01C801B7010E9464
:101F0000A0157A947720D1F6CE01DF91CF911F9161
:101F10000F91FF90EF90DF90CF90BF90AF909F9088
:101F20008F907F9008950E94AF0E0895282F809182
:101F30004A028823C1F057FF1AC015C0289A90930F
:101F400049028091F1008193E217F307B9F7411537
:101F5000510539F08091F200882319F48BE68093C3
:101F6000E800AFBF02C04FEF5FEFCA010895AFB7FF
:101F7000F89427702093E9008091F200282F30E038
:101F8000241735070CF4A901FB019B01240F311D17
:101F900094E6DACFDF93CF930F92CDB7DEB7BE01D1
:101FA0006F5F7F4F41E050E00E94960F019719F05C
:101FB0002FEF3FEF03C08981282F30E0C9010F9038
:101FC000CF91DF910895FF920F931F93F82E142F56
:101FD000052F40914D0250914E02212F302FC90103
:101FE000DC01FB016EEF29C0F7FE02C0949101C035
:101FF000908120914B0230914C0224173507ACF4AC
:102000008091E8008570E1F38091E80082FF03C0D1
:102010002FEF3FEF17C09093F100C90101968F7326
:102020009070892B11F46093E8002F5F3F4F30933D
:102030004C0220934B02119731961097A9F6812FED
:10204000902F9C01C9011F910F91FF9008959C0151
:102050008091E80082FFFCCFF901260F311D03C0FB
:102060008091F1008193E217F307D1F7289A84E673
:10207000809349028BEF8093E800CB010895809311
:10208000E9008091F200882319F08AE38093E80048
:102090000895089510924A0281E08093D70080EA63
:1020A0008093D80082E189BD09B400FEFDCF61E0D4
:1020B00070E080E090E00E941B0A80E98093D800E5
:1020C0008CE08093E2001092E000559A209A5D988F
:1020D000289808955F926F927F928F929F92AF920D
:1020E000BF92CF92DF92EF92FF920F931F93CF9305
:1020F000DF93E82E842E752E80914A02882371F199
:102100008B01242F352FC901EC017AEFF72E67E000
:10211000962E9E2050E4552E8E2D90E040E2A42E67
:10212000B12CA822B9223AE3632E20E4C22ED12C8E
:10213000C822D92258C09FB7F8949092E9008091A4
:10214000E80085FD02C020E004C08091F200252D4A
:10215000281B9FBF222361F4FA9419F42FEF3FEF5D
:102160004DC061E070E080E090E00E941B0A3BC03F
:10217000822F90E0C817D9070CF42C2FC21BD1096D
:102180004FB7F8949092E900A114B10421F406C06D
:102190001092F10021502223D9F719C0E7FC03C0A7
:1021A000F801922F10C0C801322F06C0FC01019621
:1021B000E491E093F10031503323C1F706C08191DF
:1021C0008093F10091509923D1F7020F111D809156
:1021D000E80085FF05C0209729F4C114D10411F04F
:1021E0006092E8004FBF209709F0A5CF5D9A84E682
:1021F00080934802282D372DC9019C01C901DF9128
:10220000CF911F910F91FF90EF90DF90CF90BF90F3
:10221000AF909F908F907F906F905F9008951F92E6
:102220000F920FB60F9211242F933F934F935F930A
:102230006F937F938F939F93AF93BF93EF93FF938E
:102240008091E1001092E100982F83FF0FC010925F
:10225000E90081E08093EB001092EC0082E3809330
:10226000ED0010924A0288E08093F00092FF34C0A3
:1022700083E08093E9008091F200882319F08AE3DB
:102280008093E8008FB7F89492E09093E9009091E2
:10229000F2008FBF992321F08AE392E00E94EC0CB8
:1022A00080914802882351F08091480281508093A8
:1022B000480280914802882309F45D988091490280
:1022C000882351F080914902815080934902809186
:1022D0004902882309F42898FF91EF91BF91AF91AB
:1022E0009F918F917F916F915F914F913F912F912E
:1022F0000F900FBE0F901F9018950F931F93DF93B1
:10230000CF930F92CDB7DEB719828E010F5F1F4FAB
:10231000C8010E94120DC8010E949415898190E0A5
:102320000F90CF91DF911F910F9108951F920F92FF
:102330000FB60F921124EF92FF921F932F933F93AA
:102340004F935F936F937F938F939F93AF93BF93BD
:10235000EF93FF93DF93CF93CDB7DEB76197DEBFE7
:10236000CDBF1092E9008091E80083FF0FC1FE010C
:1023700031969E01275F3F4F03C08091F10081930A
:10238000E217F307D1F7289A84E68093490282EF97
:102390008093E800998197FF05C08091E80080FF55
:1023A000FCCF03C08EEF8093E800292F30E0C901F5
:1023B00080769070892B09F0C2C08A81882329F425
:1023C0001092F1001092F100D6C0813009F4D3C010
:1023D000833009F4D0C0853049F48091E80080FF53
:1023E000FCCF8B8180688093E300C5C0863009F004
:1023F0007CC01C81EF80F8841230C1F51092E90096
:1024000010924C0210924B0210924E0210924D020A
:102410000E947D1199E0FE013996DF01292F1D925E
:102420002A95E9F799871A8791E09E8790E8988B1B
:102430009AEF998B20914B0230914C02275F3F4FCE
:102440003C872B878D871092E90010924C021092E6
:102450004B02F0924E02E0924D0280E0BF0149E053
:1024600050E00E94E30F0E947D1185C01092E900A8
:1024700010924C0210924B02F0924E02E0924D02EA
:10248000123241F482E290E00E948C15892B09F40B
:1024900076C071C0113079F488E0E816F10419F4BF
:1024A00081E080934F0280914F02882309F06BC036
:1024B000E8E5F2E013C0133009F061C08B81882396
:1024C00019F4EAE1F2E00AC0823019F4EEE1F2E038
:1024D00005C0813009F053C0E0E4F2E0449180E8A7
:1024E000BF0150E00E94E30F46C0873009F447C0A7
:1024F000883021F481E08093F1003DC08930D9F526
:1025000023703070232BD9F5EDE7F2E091E031E054
:1025100026E39093E9003093EB0084918093EC00E4
:102520002093ED009F5F3196953099F78EE7809369
:10253000EA001092EA008B8180934A021CC08F81CE
:1025400098851092E90010924C0210924B029093E1
:102550004E0280934D028D81882329F4CE0101968D
:102560000E941E0D06C0823051F4CE0101960E94D9
:102570005D14882321F08EEF8093E80007C081E28C
:102580008093EB0003C0EAE6F2E0A8CF6196DEBFDD
:10259000CDBFCF91DF91FF91EF91BF91AF919F910F
:1025A0008F917F916F915F914F913F912F911F91EB
:1025B000FF90EF900F900FBE0F901F9018952F92E5
:1025C0003F924F925F926F927F928F929F92AF92C3
:1025D000BF92CF92DF92EF92FF920F931F93DF9300
:1025E000CF93CDB7DEB73B014C0119012A016D89AC
:1025F0007E898F89988D6A197B098C099D09621AD9
:10260000730A840A950AA40193010E94BF17E21875
:10261000F30804091509A80197010E9413182A0D4F
:102620003B1D4C1D5D1DB901CA01CF91DF911F916A
:102630000F91FF90EF90DF90CF90BF90AF909F9061
:102640008F907F906F905F904F903F902F90089564
:102650000F931F93CF93DF93BC018230910510F449
:1026600062E070E0E0916002F0916102A0E0B0E011
:1026700040E050E024C08081918186179707D0F018
:102680008617970771F482819381109729F013962A
:102690009C938E9312972CC090936102809360025A
:1026A00027C04115510519F08417950718F4EF015B
:1026B0008D01AC01DF01828193819C01F90130978A
:1026C000D1F641155105F9F0CA01861B970B8430EC
:1026D000910580F48A819B810115110521F0F80193
:1026E0009383828304C09093610280936002FE0111
:1026F000329645C0FE01E80FF91F6193719302976E
:10270000998388833CC080915E0290915F02892BFF
:1027100041F4809152019091530190935F02809314
:102720005E0240915401509155014115510541F40B
:102730004DB75EB78091500190915101481B590BE4
:1027400020915E0230915F0224173507B0F4CA0170
:10275000821B930B8617970780F0AB014E5F5F4F8C
:102760008417950750F0420F531F50935F02409318
:102770005E02F9016193719302C0E0E0F0E0CF01E5
:10278000DF91CF911F910F910895CF93DF939C011B
:10279000009709F48FC0EC0122971B821A82609186
:1027A0006002709161026115710581F488819981DF
:1027B000820F931F20915E0230915F022817390724
:1027C00039F5D0935F02C0935E0274C0DB0140E034
:1027D00050E0AC17BD0708F1BB83AA83FE0121912D
:1027E0003191E20FF31FAE17BF0779F48D919C91E1
:1027F0001197280F391F2E5F3F4F39832883129678
:102800008D919C9113979B838A834115510571F497
:10281000D0936102C09360024DC012968D919C913D
:102820001397AD01009711F0DC01D3CFDA011396B5
:10283000DC93CE931297FA0121913191E20FF31FAD
:10284000CE17DF0769F488819981280F391F2E5F21
:102850003F4FFA01318320838A819B819383828356
:10286000E0E0F0E0DB0112968D919C9113970097C8
:1028700019F0BC01FD01F6CFAB014E5F5F4FDB01EC
:102880008D919C91840F951F20915E0230915F0283
:102890002817390779F4309729F4109261021092C1
:1028A000600202C0138212824250504050935F0275
:1028B00040935E02DF91CF910895FC019181808168
:1028C000813A31F4913089F080E0933089F40DC081
:1028D000813269F49B3021F482818093560105C0D6
:1028E0009A3029F482818093570181E0089580E035
:1028F0000895EF92FF920F931F938C01E62EDC0157
:10290000ED91FC910480F581E02D0995F82ED80118
:10291000ED91FC910680F781E02DC8016E2D09959F
:102920008F2D90E01F910F91FF90EF9008951092DE
:10293000510210925502109254028EE791E090934A
:102940005302809352020895EF92FF920F931F93C8
:10295000DF93CF930F92CDB7DEB789838B017A01D6
:1029600084E0BE016F5F7F4F41E050E00E946A103B
:1029700084E4B801A7010E946A100F90CF91DF9103
:102980001F910F91FF90EF90089582E048E050E092
:102990000E94A4140895FC011682178210861186E5
:1029A0001286138614823496BF010E94C5140895BE
:1029B000DC01683810F0685829C0E62FF0E067FFA6
:1029C00013C0E058F04081E090E002C0880F991FEA
:1029D000EA95E2F7809514962C9114972823149683
:1029E0002C93149760E012C0E150FD4F6491662370
:1029F00019F420E030E01DC067FF08C014968C91E8
:102A000014978D7F14968C9314976F77FD0190E047
:102A1000662321F08681861709F416829F5F31961E
:102A20009630B1F7CD011496BD010E94C51421E086
:102A300030E0C9010895CF93DF93DC01683810F0CE
:102A4000685825C0E62FF0E067FF12C0E058F0405C
:102A500081E090E002C0880F991FEA95E2F7149692
:102A60002C911497282B14962C93149760E00FC088
:102A7000E150FD4F64916623D9F167FF08C01496B9
:102A80008C911497826014968C9314976F77169696
:102A90008C9116978617A9F117968C911797861720
:102AA00081F118968C911897861759F119968C9187
:102AB0001997861731F11A968C911A97861709F192
:102AC0001B968C911B978617E1F0ED01E0E0F0E09A
:102AD0009E2F8E81882321F4EA0FFB1F668306C098
:102AE0009F5F31962196E630F10591F7963049F4D3
:102AF00081E090E013969C938E93129720E030E053
:102B000007C0CD011496BD010E94C51421E030E03C
:102B1000C901DF91CF91089580E861E872E045E650
:102B200050E00E94E30F0895FC0180818F5F808355
:102B300080E866EE72E049E150E00E94E30F0895FC
:102B40005058BB27AA270ED075C166D130F06BD183
:102B500020F031F49F3F11F41EF45BC10EF4E095B8
:102B6000E7FB51C1E92F77D180F3BA1762077307EA
:102B70008407950718F071F49EF58FC10EF4E09567
:102B80000B2EBA2FA02D0B01B90190010C01CA0127
:102B9000A0011124FF27591B99F0593F50F4503ED2
:102BA00068F11A16F040A22F232F342F4427585FC4
:102BB000F3CF469537952795A795F0405395C9F7DC
:102BC0007EF41F16BA0B620B730B840BBAF0915094
:102BD000A1F0FF0FBB1F661F771F881FC2F70EC033
:102BE000BA0F621F731F841F48F487957795679506
:102BF000B795F7959E3F08F0B3CF9395880F08F0EF
:102C00009927EE0F979587950895D9D008F481E01C
:102C100008950CD00FC107D140F0FED030F021F460
:102C20005F3F19F0F0C0511139C1F3C014D198F3CE
:102C30009923C9F35523B1F3951B550BBB27AA273D
:102C400062177307840738F09F5F5F4F220F331FAF
:102C5000441FAA1FA9F333D00E2E3AF0E0E830D07B
:102C600091505040E695001CCAF729D0FE2F27D07E
:102C7000660F771F881FBB1F261737074807AB074C
:102C8000B0E809F0BB0B802DBF01FF2793585F4FC1
:102C90002AF09E3F510568F0B6C000C15F3FECF3DB
:102CA000983EDCF3869577956795B795F7959F5F86
:102CB000C9F7880F911D9695879597F90895E1E0DA
:102CC000660F771F881FBB1F621773078407BA0739
:102CD00020F0621B730B840BBA0BEE1F88F7E09594
:102CE000089504D06894B111D9C00895BCD088F07B
:102CF0009F5790F0B92F9927B751A0F0D1F0660FE8
:102D0000771F881F991F1AF0BA95C9F712C0B13002
:102D100081F0C3D0B1E00895C0C0672F782F882715
:102D2000B85F39F0B93FCCF3869577956795B39541
:102D3000D9F73EF490958095709561957F4F8F4FB0
:102D40009F4F0895E89409C097FB3EF490958095B5
:102D5000709561957F4F8F4F9F4F9923A9F0F92F61
:102D600096E9BB279395F695879577956795B795DF
:102D7000F111F8CFFAF4BB0F11F460FF1BC06F5FC5
:102D80007F4F8F4F9F4F16C0882311F096E911C0D7
:102D9000772321F09EE8872F762F05C0662371F0F8
:102DA00096E8862F70E060E02AF09A95660F771F0C
:102DB000881FDAF7880F9695879597F90895990FE8
:102DC0000008550FAA0BE0E8FEEF16161706E807F5
:102DD000F907C0F012161306E407F50798F0621B16
:102DE000730B840B950B39F40A2661F0232B242BEB
:102DF000252B21F408950A2609F4A140A6958FEF0A
:102E0000811D811D089597F99F6780E870E060E05B
:102E100008959FEF80EC089500240A941616170673
:102E200018060906089500240A94121613061406BB
:102E300005060895092E0394000C11F4882352F01E
:102E4000BB0F40F4BF2B11F460FF04C06F5F7F4FD6
:102E50008F4F9F4F089557FD9058440F551F59F0BD
:102E60005F3F71F04795880F97FB991F61F09F3F77
:102E700079F087950895121613061406551FF2CFA0
:102E80004695F1DF08C0161617061806991FF1CFF0
:102E900086957105610508940895E894BB27662717
:102EA0007727CB0197F908958ADF08F48FEF08950B
:102EB0000BD0C0CFB1DF28F0B6DF18F0952309F0B2
:102EC000A2CFA7CF1124EACFC6DFA0F3959FD1F3FD
:102ED000950F50E0551F629FF001729FBB27F00DC8
:102EE000B11D639FAA27F00DB11DAA1F649F66271D
:102EF000B00DA11D661F829F2227B00DA11D621F6C
:102F0000739FB00DA11D621F839FA00D611D221F25
:102F1000749F3327A00D611D231F849F600D211D09
:102F2000822F762F6A2F11249F5750408AF0E1F0AC
:102F300088234AF0EE0FFF1FBB1F661F771F881FF5
:102F400091505040A9F79E3F510570F05CCFA6CF3D
:102F50005F3FECF3983EDCF3869577956795B795E0
:102F6000F795E7959F5FC1F7FE2B880F911D96950A
:102F7000879597F9089523DF880B990B0895629F31
:102F8000D001739FF001829FE00DF11D649FE00D61
:102F9000F11D929FF00D839FF00D749FF00D659FC2
:102FA000F00D9927729FB00DE11DF91F639FB00DC1
:102FB000E11DF91FBD01CF011124089597FB092ED2
:102FC00007260AD077FD04D049D006D000201AF495
:102FD000709561957F4F0895F6F7909581959F4F75
:102FE0000895A1E21A2EAA1BBB1BFD010DC0AA1F4A
:102FF000BB1FEE1FFF1FA217B307E407F50720F062
:10300000A21BB30BE40BF50B661F771F881F991FDC
:103010001A9469F760957095809590959B01AC0125
:10302000BD01CF01089597FB092E05260ED057FD4F
:1030300004D0D7DF0AD0001C38F450954095309565
:1030400021953F4F4F4F5F4F0895F6F7909580952C
:10305000709561957F4F8F4F9F4F0895AA1BBB1BA3
:1030600051E107C0AA1FBB1FA617B70710F0A61B88
:10307000B70B881F991F5A95A9F780959095BC01A9
:10308000CD010895EE0FFF1F0590F491E02D0994F6
:1030900013E0C8E8D3E004C0FE010E944418229661
:0A30A000CA38D107C9F7F894FFCF32
:1030AA007B226E616D65223A22676175737369616D
:1030BA006E426C7572222C2261726773223A7B22ED
:1030CA0076616C7565223A002C2272616E67652200
:1030DA003A007D7D006E616E00696E66006F7666ED
:1030EA00002E000000C8420100E1000000000000BC
:1030FA008000620200000101000000005209930DE5
:10310A00380917096B095A0900000000C00C930D11
:10311A005F0C860C6D0CE80CEC0C000000007914B6
:08312A00930D1B15D814CB1402
:00000001FF
