:100000000C9475010C949D010C949D010C949D0120
:100010000C949D010C949D010C949D010C949D01E8
:100020000C949D010C949D010C94220A0C94A90A35
:100030000C949D010C949D010C949D010C949D01C8
:100040000C949D010C949D010C949D010C949D01B8
:100050000C949D010C949D010C949D010C947503CE
:100060000C949D010C949D010C949D010C949D0198
:100070000C949D010C949D010C949D010C949D0188
:100080000C949D010C949D010C949D010C949D0178
:100090000C949D010C949D010C949D010C949D0168
:1000A0000C949D010C949D010C949D010000000096
:1000B000240027002A002D00300000000000250049
:1000C00028002B002E003100000000002300260035
:1000D00029002C002F000404040404030405020278
:1000E00002020403020202020606060606060404D1
:1000F00002020204040802011040804010204080E7
:10010000408008020401804020100201108010206D
:1001100040400000000200080E0000030401000B34
:1001200000000000000000000000000000000000CF
:10013000070605040100080A0B0C0D09080B000254
:10014000020201000904000001020200000524006F
:100150001001052401010104240206052406000102
:100160000705810310004009040100020A00000095
:100170000705020240000007058302400000040357
:1001800009042203410072006400750069006E00DA
:100190006F0020004D006900630072006F002000B6
:1001A00020002000180341007200640075006900FF
:1001B0006E006F0020004C004C0043001201000252
:1001C00000000040412337800001010200011201BC
:1001D00000020200004041233780000101020001BB
:1001E00000C18081C105010902A1010901A10085A9
:1001F00001050919012903150025019503750181E0
:100200000295017505810305010930093109381589
:1002100081257F750895038106C0C005010906A1E7
:10022000018502050719E029E715002501750195EB
:10023000088102950175088103950675081500254A
:10024000650507190029658100C009040200010342
:100250000000000921010100012265000705840357
:1002600040000100000000000000002A2B280000D0
:10027000000000000000000000000000000000007E
:100280000000002C9EB4A0A1A2A434A6A7A5AE365F
:100290002D3738271E1F20212223242526B333B6CD
:1002A0002EB7B89F8485868788898A8B8C8D8E8FA0
:1002B000909192939495969798999A9B9C9D2F31A3
:1002C00030A3AD350405060708090A0B0C0D0E0F07
:1002D000101112131415161718191A1B1C1DAFB183
:1002E000B0B50000B5055C092C0C11241FBECFEF82
:1002F000DAE0DEBFCDBF11E0A0E0B1E0EAE3FFE16C
:1003000002C005900D92AC36B107D9F711E0ACE60A
:10031000B1E001C01D92AE3EB107E1F712E0CAEEB6
:10032000D2E004C02297FE010E94970FC43ED1077D
:10033000C9F70E9480060C949B0F0C940000AF92AA
:10034000BF92CF92DF92EF92FF920F931F9382E0C2
:100350000E943A0590936D0180936C01019709F01A
:1003600093C08DE061E00E94070520916C013091FF
:100370006D0180916E0190916F012817390709F482
:1003800047C081E080937C010E94BD037B018C010A
:100390006093740170937501809376019093770157
:1003A0006091700170917101882777FD8095982F79
:1003B0000E94390E5B016C0120E030E040E050E02B
:1003C0000E94E90E181624F5C801B7010E94370EE5
:1003D0007B018C01C601B50120E030E04AEF54E416
:1003E0000E94ED0E20E030E044EB52EC0E949E0DA6
:1003F0009B01AC01C801B7010E94360D0E940B0E93
:1004000060937401709375018093760190937701E6
:100410000E94BD039B01AC01809174019091750114
:10042000A0917601B0917701281B390B4A0B5B0B29
:10043000209378013093790140937A0150937B01A6
:10044000203D87E0380780E0480780E05807A8F49F
:10045000CA01B9010E94370E20E030E044EB52E4BB
:100460000E94ED0E20E030E04AEF54E40E949E0D21
:1004700020E030E040E050E05BC08AE590E09093FF
:10048000710180937001B4C08DE060E00E940705A7
:1004900020916C0130916D0180916E0190916F01FE
:1004A0002817390769F081E080937C010E94BD0321
:1004B0006093740170937501809376019093770136
:1004C0000E94BD039B01AC01809174019091750164
:1004D000A0917601B0917701281B390B4A0B5B0B79
:1004E000209378013093790140937A0150937B01F6
:1004F00080917C01882351F528358BE1380780E015
:10050000480780E05807E8F4CA01B9010E94370E95
:1005100020E030E044EB52EC0E94ED0E20E030ECA5
:100520004AED55E40E949E0D20E030E044EB52E499
:100530000E94360D0E94060E709371016093700147
:1005400057C0109271011092700152C02858334167
:100550004040504008F44CC010927C010E94BD0302
:100560007B018C0160937401709375018093760117
:10057000909377016091700170917101882777FDE8
:100580008095982F0E94390E5B016C0120E030E0CD
:1005900044EB52E40E949A0D882354F5C801B70138
:1005A0000E94370E7B018C01C601B50120E030E0CE
:1005B00044EB52E40E94350D20E030EC4AED55E466
:1005C0000E94ED0E20E030E044EB52E40E949E0DCC
:1005D0009B01AC01C801B7010E94360D0E940B0EB1
:1005E0006093740170937501809376019093770105
:1005F000209170013091710180917201909173018D
:1006000028173907D1F18AEC91E060E071E00E948F
:10061000BF076091700170917101882777FD809507
:10062000982F0E94390E9B01AC0160E070E084EBD2
:1006300092E40E94350DAB01BC018AEC91E022E00E
:1006400030E00E94A6088AEC91E068E271E00E9426
:10065000BF0760916C0170916D018AEC91E04AE0F6
:1006600050E00E94AC078AEC91E060E371E00E94E8
:10067000BF078AEC91E00E94BD06809170019091C5
:100680007101909373018093720180916C0190913C
:100690006D0190936F0180936E0162E370E080E0E2
:1006A00090E00E94CB031F910F91FF90EF90DF909D
:1006B000CF90BF90AF90089582E060E00E947A04EE
:1006C0008DE061E00E947A048AEC91E060E875E2D6
:1006D0000E946A050E94BD036093740170937501C6
:1006E000809376019093770108951F920F920FB631
:1006F0000F9211242F933F938F939F93AF93BF93A8
:100700008091810190918201A0918301B091840137
:10071000309185010196A11DB11D232F2D5F2D372D
:1007200020F02D570196A11DB11D209385018093C6
:10073000810190938201A0938301B0938401809101
:100740007D0190917E01A0917F01B0918001019681
:10075000A11DB11D80937D0190937E01A0937F0127
:10076000B0938001BF91AF919F918F913F912F9155
:100770000F900FBE0F901F9018958FB7F89420918F
:1007800081013091820140918301509184018FBF9A
:10079000B901CA0108959B01AC017FB7F89480911B
:1007A0007D0190917E01A0917F01B091800166B59D
:1007B000A89B05C06F3F19F00196A11DB11D7FBF19
:1007C000BA2FA92F982F8827860F911DA11DB11D23
:1007D00062E0880F991FAA1FBB1F6A95D1F7BC0161
:1007E0002DC0FFB7F89480917D0190917E01A0917A
:1007F0007F01B0918001E6B5A89B05C0EF3F19F0DD
:100800000196A11DB11DFFBFBA2FA92F982F8827D0
:100810008E0F911DA11DB11DE2E0880F991FAA1F27
:10082000BB1FEA95D1F7861B970B885E9340C8F2F1
:10083000215030404040504068517C4F21153105D7
:100840004105510571F60895789484B5826084BDA0
:1008500084B5816084BD85B5826085BD85B58160C4
:1008600085BDEEE6F0E0808181608083E1E8F0E024
:100870001082808182608083808181608083E0E853
:10088000F0E0808181608083E1E9F0E08081826036
:100890008083808181608083E0E9F0E080818160F5
:1008A0008083E1ECF0E080818460808380818260DD
:1008B0008083808181608083E3ECF0E080818160CF
:1008C0008083E0ECF0E0808182608083E2ECF0E005
:1008D000808181608083EAE7F0E0808184608083AA
:1008E0008081826080838081816080838081806854
:1008F00080830895CF93DF93482F50E0CA018C5036
:100900009F4FFC0134914A525F4FFA018491882332
:1009100069F190E0880F991FFC01E455FF4FA59104
:10092000B491FC01E654FF4FC591D491662351F474
:100930002FB7F8948C91932F909589238C9388816D
:1009400089230BC0623061F42FB7F8948C91932FF8
:10095000909589238C938881832B88832FBF06C031
:100960009FB7F8948C91832B8C939FBFDF91CF918D
:100970000895883071F1893068F4823031F1833024
:1009800020F4813009F042C01DC0833089F08430EA
:10099000E9F512C08B3059F18C3028F48930E9F038
:1009A0008A30A1F51EC08C3031F18E3079F529C026
:1009B000809180008F7703C0809180008F7D80932D
:1009C0008000089584B58F7702C084B58F7D84BD83
:1009D0000895809190008F7707C0809190008F7D5F
:1009E00003C080919000877F80939000089580914C
:1009F000C0008F7703C08091C0008F7D8093C000BE
:100A000008958091C200877F8093C2000895FF926D
:100A10000F931F93F62E482F50E0CA018E5E9E4F13
:100A2000FC012491CA018C509F4FFC0114914A5241
:100A30005F4FFA0104910023C9F0222319F0822F9D
:100A40000E94B904E02FF0E0EE0FFF1FE654FF4FC5
:100A5000A591B4919FB7F894FF2021F48C91109543
:100A6000812302C08C91812B8C939FBF1F910F918A
:100A7000FF9008950F931F93482F50E0CA018E5E98
:100A80009E4FFC012491CA018C509F4FFC010491A0
:100A90004A525F4FFA011491112319F420E030E01B
:100AA00015C0222319F0822F0E94B904812F90E0F3
:100AB000880F991F88539F4FFC01A591B4918C9189
:100AC00020E030E0802311F021E030E0C9011F91E7
:100AD0000F91089508952091C6013091C70180912A
:100AE000C8019091C901281B390B2F733070C901BF
:100AF00008952091C6013091C7018091C80190915D
:100B0000C9012817390719F42FEF3FEF09C0E09109
:100B1000C801F091C901EA57FE4F8081282F30E0CB
:100B2000C90108952091C6013091C7018091C80183
:100B30009091C9012817390719F42FEF3FEF13C01F
:100B4000E091C801F091C901EA57FE4F20818091E0
:100B5000C8019091C90101968F7390709093C9015B
:100B60008093C80130E0C90108951092CD01109220
:100B7000CC0188EE93E0A0E0B0E08093CE019093AA
:100B8000CF01A093D001B093D1018FE491E0909375
:100B9000CB018093CA0108950F931F93DF93CF93E6
:100BA0000F92CDB7DEB78C0169838091480188230D
:100BB00069F083E0BE016F5F7F4F41E050E00E942B
:100BC0007D091816190614F49C0107C081E090E015
:100BD000F8019383828320E030E0C9010F90CF9128
:100BE000DF911F910F91089583E00E9452090895AB
:100BF000CF93DF9312C082E00E94DD082FEF8F3F7A
:100C00009207C9F0E091C601F091C701EA57FE4F83
:100C10008083D093C701C093C601C091C601D09113
:100C2000C7012196CF73D0708091C8019091C901FE
:100C3000C817D90701F7DF91CF910895FC01808192
:100C40008E5F808380E86CE371E042E450E00E94B4
:100C5000F6080895FC0181819081913A59F481321E
:100C600009F04CC080E061E471E047E050E00E9490
:100C7000F60842C0913209F041C0803239F481E473
:100C800091E067E070E00E943A0936C0823209F0D4
:100C900035C0828180934801809141019091420149
:100CA000A0914301B0914401805B9440A040B040CA
:100CB00019F58091480180FD12C087E797E790936E
:100CC0000108809300082BE088E190E00FB6F894CB
:100CD000A895809360000FBE209360000DC088E14E
:100CE0000FB6F89480936000109260000FBEA89534
:100CF000109201081092000881E0089580E00895A4
:100D0000CF93DF930E94240480EE91E00E945D095E
:100D10000E945C03C0E0D0E00E949F012097E1F3B5
:100D20000E940000F9CFCF92DF92EF92FF920F93D3
:100D30001F93CF93DF937C016B018A01C0E0D0E069
:100D40000FC0D6016D916D01D701ED91FC9101901D
:100D5000F081E02DC7010995C80FD91F015010403F
:100D60000115110571F7CE01DF91CF911F910F9100
:100D7000FF90EF90DF90CF900895EF92FF920F9346
:100D80001F938C01DC01ED91FC910190F081E02D2D
:100D90006DE009957C01D801ED91FC910190F08105
:100DA000E02DC8016AE009959C012E0D3F1DC90187
:100DB0001F910F91FF90EF900895CF93DF93EC0177
:100DC0006115710519F420E030E00FC0DB010D90D2
:100DD0000020E9F71197A61BB70BE881F981028083
:100DE000F381E02DAD0109959C01C901DF91CF91FF
:100DF00008954F925F927F928F929F92AF92BF928F
:100E0000CF92DF92EF92FF920F931F93DF93CF93D6
:100E1000CDB7DEB7A1970FB6F894DEBF0FBECDBF3A
:100E20002C01742ECB01223008F42AE019A231E201
:100E3000C32ED12CCC0EDD1E822E9924AA24BB24D5
:100E4000672D752FA50194010E94730F79018A0106
:100E5000C801B701A50194010E94540F472D461BFC
:100E60000894C108D1084A3014F4405D01C0495CBF
:100E7000F6014083E114F1040105110521F07E2CF7
:100E80005F2DC801DDCFC201B6010E94DD06A1962B
:100E90000FB6F894DEBF0FBECDBFCF91DF911F918B
:100EA0000F91FF90EF90DF90CF90BF90AF909F9009
:100EB0008F907F905F904F900895DC012115310550
:100EC00041F4ED91FC910190F081E02D642F0995A2
:100ED00008950E94F9060895CF92DF92EF92FF9253
:100EE0000F931F93CF93DF93EC016A017B012115D0
:100EF000310541F4E881F9810190F081E02D642F02
:100F000009951FC02A303105D1F477FF17C0E88159
:100F1000F9810190F081E02D6DE209958C01442763
:100F20005527BA014C195D096E097F09CE012AE0E7
:100F30000E94F9069801280F391F04C02AE00E9478
:100F4000F9069C01C901DF91CF911F910F91FF908C
:100F5000EF90DF90CF900895EF92FF920F931F9341
:100F60007B019A010027F7FC0095102FB801A7011B
:100F70000E946C071F910F91FF90EF9008950E94BF
:100F8000DD0608957F928F929F92AF92BF92CF928B
:100F9000DF92EF92FF920F931F93CF93DF934C0159
:100FA0007A018B01722ECB01BA01A80197010E9430
:100FB000500F882321F0C40163E371E021C0C0E039
:100FC000D0E057016801E894D7F8C601B5012FEFCA
:100FD0003FEF4FE75FE70E94500F882351F4C601AF
:100FE000B5012FEF3FEF4FE75FE70E949A0D18160C
:100FF00014F0C1E0D0E0219739F0C40167E371E05B
:101000000E94DD06EC0193C0C801B7012FEF3FEF4E
:101010004FE75FE40E94E90E181654F0C801B701CB
:101020002FEF3FEF4FE75FEC0E949A0D882324F4E7
:10103000C4016BE371E0E4CFC801B70120E030E008
:1010400040E050E00E949A0D87FD03C0C0E0D0E070
:101050000EC0D401ED91FC910190F081E02DC4010E
:101060006DE20995EC0117FB109517F9109520E03A
:1010700030E040E05FE3DD240BC0CA01B90120E0AD
:1010800030E040E251E40E949E0D9B01AC01D394FC
:10109000D71498F3C801B7010E94360D5B016C01AB
:1010A0000E940B0E7B018C01C401B801A7012AE04C
:1010B00030E00E945D07C80FD91F772039F0C401C6
:1010C0006FE371E00E94DD06C80FD91FC801B701A8
:1010D0000E94370E9B01AC01C601B5010E94350D7F
:1010E00024C020E030E040E251E40E94ED0E7B019C
:1010F0008C010E94060E5B016C01CC24B7FCC094ED
:10110000DC2CC401B601A5012AE030E00E946C0786
:10111000C80FD91FC601B5010E94390E9B01AC0151
:10112000C801B7010E94350D7A947720D1F6CE011F
:10113000DF91CF911F910F91FF90EF90DF90CF90B3
:10114000BF90AF909F908F907F9008950E94C207AC
:101150000895282F8091DA018823C1F057FF1AC023
:1011600015C0289A9093D9018091F1008193E217DC
:10117000F307B9F74115510539F08091F200882342
:1011800019F48BE68093E800AFBF02C04FEF5FEF2A
:10119000CA010895AFB7F89427702093E9008091B1
:1011A000F200282F30E0241735070CF4A901FB01C9
:1011B0009B01240F311D94E6DACFDF93CF930F927A
:1011C000CDB7DEB7BE016F5F7F4F41E050E00E94B8
:1011D000A908019719F02FEF3FEF03C08981282F4D
:1011E00030E0C9010F90CF91DF910895FF920F93E6
:1011F0001F93F82E142F052F4091DD015091DE0131
:10120000212F302FC901DC01FB016EEF29C0F7FE51
:1012100002C0949101C090812091DB013091DC01EA
:1012200024173507ACF48091E8008570E1F38091D4
:10123000E80082FF03C02FEF3FEF17C09093F1004B
:10124000C90101968F739070892B11F46093E800A7
:101250002F5F3F4F3093DC012093DB0111973196D4
:101260001097A9F6812F902F9C01C9011F910F9112
:10127000FF9008959C018091E80082FFFCCFF90166
:10128000260F311D03C08091F1008193E217F3070F
:10129000D1F7289A84E68093D9018BEF8093E800F8
:1012A000CB0108958093E9008091F200882319F022
:1012B0008AE38093E800089508951092DA0181E0AE
:1012C0008093D70080EA8093D80082E189BD09B479
:1012D00000FEFDCF61E070E080E090E00E94CB0373
:1012E00080E98093D8008CE08093E2001092E000C7
:1012F000559A209A5D98289808955F926F927F92F0
:101300008F929F92AF92BF92CF92DF92EF92FF9215
:101310000F931F93CF93DF93E82E842E752E809129
:10132000DA01882371F18B01242F352FC901EC01DB
:101330007AEFF72E67E0962E9E2050E4552E8E2DE4
:1013400090E040E2A42EB12CA822B9223AE3632E09
:1013500020E4C22ED12CC822D92258C09FB7F894BD
:101360009092E9008091E80085FD02C020E004C071
:101370008091F200252D281B9FBF222361F4FA944F
:1013800019F42FEF3FEF4DC061E070E080E090E096
:101390000E94CB033BC0822F90E0C817D9070CF402
:1013A0002C2FC21BD1094FB7F8949092E900A114D9
:1013B000B10421F406C01092F10021502223D9F784
:1013C00019C0E7FC03C0F801922F10C0C801322FEA
:1013D00006C0FC010196E491E093F1003150332303
:1013E000C1F706C081918093F10091509923D1F704
:1013F000020F111D8091E80085FF05C0209729F498
:10140000C114D10411F06092E8004FBF209709F099
:10141000A5CF5D9A84E68093D801282D372DC90188
:101420009C01C901DF91CF911F910F91FF90EF9027
:10143000DF90CF90BF90AF909F908F907F906F90F4
:101440005F9008951F920F920FB60F9211242F9361
:101450003F934F935F936F937F938F939F93AF933C
:10146000BF93EF93FF938091E1001092E100982FDA
:1014700083FF0FC01092E90081E08093EB0010928F
:10148000EC0082E38093ED001092DA0188E0809313
:10149000F00092FF34C083E08093E9008091F20075
:1014A000882319F08AE38093E8008FB7F89492E0DC
:1014B0009093E9009091F2008FBF992321F08AEC7C
:1014C00091E00E94F8058091D801882351F0809125
:1014D000D80181508093D8018091D801882309F4E4
:1014E0005D988091D901882351F08091D901815074
:1014F0008093D9018091D901882309F42898FF911C
:10150000EF91BF91AF919F918F917F916F915F917B
:101510004F913F912F910F900FBE0F901F901895F4
:101520000F931F93DF93CF930F92CDB7DEB719823E
:101530008E010F5F1F4FC8010E941E06C8010E9446
:10154000290D898190E00F90CF91DF911F910F912C
:1015500008951F920F920FB60F921124EF92FF92EF
:101560001F932F933F934F935F936F937F938F932B
:101570009F93AF93BF93EF93FF93DF93CF93CDB739
:10158000DEB76197DEBFCDBF1092E9008091E80021
:1015900083FF0FC1FE0131969E01275F3F4F03C0BD
:1015A0008091F1008193E217F307D1F7289A84E63E
:1015B0008093D90182EF8093E800998197FF05C05D
:1015C0008091E80080FFFCCF03C08EEF8093E8009D
:1015D000292F30E0C90180769070892B09F0C2C0B4
:1015E0008A81882329F41092F1001092F100D6C06C
:1015F000813009F4D3C0833009F4D0C0853049F478
:101600008091E80080FFFCCF8B8180688093E300AD
:10161000C5C0863009F07CC01C81EF80F884123090
:10162000C1F51092E9001092DC011092DB011092DA
:10163000DE011092DD010E94900A99E0FE013996C8
:10164000DF01292F1D922A95E9F799871A8791E0E2
:101650009E8790E8988B9AEF998B2091DB013091CF
:10166000DC01275F3F4F3C872B878D871092E90075
:101670001092DC011092DB01F092DE01E092DD01BC
:1016800080E0BF0149E050E00E94F6080E94900A05
:1016900085C01092E9001092DC011092DB01F092FB
:1016A000DE01E092DD01123241F482E290E00E941C
:1016B000210D892B09F476C071C0113079F488E0CE
:1016C000E816F10419F481E08093DF018091DF01D5
:1016D000882309F06BC0ECEBF1E013C0133009F084
:1016E00061C08B81882319F4EEE7F1E00AC08230F3
:1016F00019F4E2E8F1E005C0813009F053C0E4EAF2
:10170000F1E0449180E8BF0150E00E94F60846C035
:10171000873009F447C0883021F481E08093F100DC
:101720003DC08930D9F523703070232BD9F5E1EE17
:10173000F1E091E031E026E39093E9003093EB0093
:1017400084918093EC002093ED009F5F319695305B
:1017500099F78EE78093EA001092EA008B818093DC
:10176000DA011CC08F8198851092E9001092DC018B
:101770001092DB019093DE018093DD018D8188233F
:1017800029F4CE0101960E942A0606C0823051F447
:10179000CE0101960E94F20B882321F08EEF8093F8
:1017A000E80007C081E28093EB0003C0EEECF1E0BB
:1017B000A8CF6196DEBFCDBFCF91DF91FF91EF91B2
:1017C000BF91AF919F918F917F916F915F914F9159
:1017D0003F912F911F91FF90EF900F900FBE0F90B0
:1017E0001F901895FC0191818081813A31F49130EC
:1017F00089F080E0933089F40DC0813269F49B3028
:1018000021F482818093490105C09A3029F48281B4
:1018100080934A0181E0089580E00895EF92FF925D
:101820000F931F938C01E62EDC01ED91FC91048057
:10183000F581E02D0995F82ED801ED91FC910680F7
:10184000F781E02DC8016E2D09958F2D90E01F9135
:101850000F91FF90EF9008951092E1011092E50131
:101860001092E40181E691E09093E3018093E2011C
:101870000895EF92FF920F931F93DF93CF930F92F0
:10188000CDB7DEB789838B017A0184E0BE016F5F3B
:101890007F4F41E050E00E947D0984E4B801A70138
:1018A0000E947D090F90CF91DF911F910F91FF90C2
:1018B000EF90089582E048E050E00E94390C0895CE
:1018C000FC011682178210861186128613861482F6
:1018D0003496BF010E945A0C0895DC01683810F05C
:1018E000685829C0E62FF0E067FF13C0E058F040C9
:1018F00081E090E002C0880F991FEA95E2F7809599
:1019000014962C911497282314962C93149760E026
:1019100012C0ED59FD4F6491662319F420E030E0C8
:101920001DC067FF08C014968C9114978D7F149684
:101930008C9314976F77FD0190E0662321F08681E8
:10194000861709F416829F5F31969630B1F7CD0164
:101950001496BD010E945A0C21E030E0C90108959F
:10196000CF93DF93DC01683810F0685825C0E62F6C
:10197000F0E067FF12C0E058F04081E090E002C064
:10198000880F991FEA95E2F714962C911497282B4B
:1019900014962C93149760E00FC0ED59FD4F64919D
:1019A0006623D9F167FF08C014968C911497826062
:1019B00014968C9314976F7716968C9116978617BA
:1019C000A9F117968C911797861781F118968C912B
:1019D0001897861759F119968C911997861731F136
:1019E0001A968C911A97861709F11B968C911B9762
:1019F0008617E1F0ED01E0E0F0E09E2F8E81882374
:101A000021F4EA0FFB1F668306C09F5F3196219683
:101A1000E630F10591F7963049F481E090E01396B5
:101A20009C938E93129720E030E007C0CD0114966E
:101A3000BD010E945A0C21E030E0C901DF91CF9135
:101A4000089580E865EE71E045E650E00E94F608F2
:101A50000895FC0180818F5F808380E86AE472E0F2
:101A600049E150E00E94F60808955058BB27AA2784
:101A70000ED075C166D130F06BD120F031F49F3FAC
:101A800011F41EF45BC10EF4E095E7FB51C1E92FA0
:101A900077D180F3BA17620773078407950718F0A8
:101AA00071F49EF58FC10EF4E0950B2EBA2FA02D88
:101AB0000B01B90190010C01CA01A0011124FF27FB
:101AC000591B99F0593F50F4503E68F11A16F040F6
:101AD000A22F232F342F4427585FF3CF46953795F5
:101AE0002795A795F0405395C9F77EF41F16BA0BBA
:101AF000620B730B840BBAF09150A1F0FF0FBB1F68
:101B0000661F771F881FC2F70EC0BA0F621F731FB0
:101B1000841F48F4879577956795B795F7959E3F0D
:101B200008F0B3CF9395880F08F09927EE0F97959B
:101B300087950895D9D008F481E008950CD00FC19D
:101B400007D140F0FED030F021F45F3F19F0F0C033
:101B5000511139C1F3C014D198F39923C9F3552316
:101B6000B1F3951B550BBB27AA2762177307840790
:101B700038F09F5F5F4F220F331F441FAA1FA9F346
:101B800033D00E2E3AF0E0E830D091505040E69538
:101B9000001CCAF729D0FE2F27D0660F771F881F99
:101BA000BB1F261737074807AB07B0E809F0BB0B88
:101BB000802DBF01FF2793585F4F2AF09E3F5105AC
:101BC00068F0B6C000C15F3FECF3983EDCF3869549
:101BD00077956795B795F7959F5FC9F7880F911D22
:101BE0009695879597F90895E1E0660F771F881F0E
:101BF000BB1F621773078407BA0720F0621B730BC1
:101C0000840BBA0BEE1F88F7E095089504D0689412
:101C1000B111D9C00895BCD088F09F5790F0B92F6A
:101C20009927B751A0F0D1F0660F771F881F991F31
:101C30001AF0BA95C9F712C0B13081F0C3D0B1E043
:101C40000895C0C0672F782F8827B85F39F0B93F53
:101C5000CCF3869577956795B395D9F73EF4909533
:101C60008095709561957F4F8F4F9F4F0895E894B1
:101C700009C097FB3EF490958095709561957F4FD4
:101C80008F4F9F4F9923A9F0F92F96E9BB27939582
:101C9000F695879577956795B795F111F8CFFAF492
:101CA000BB0F11F460FF1BC06F5F7F4F8F4F9F4FC3
:101CB00016C0882311F096E911C0772321F09EE821
:101CC000872F762F05C0662371F096E8862F70E087
:101CD00060E02AF09A95660F771F881FDAF7880F61
:101CE0009695879597F90895990F0008550FAA0BB7
:101CF000E0E8FEEF16161706E807F907C0F012161F
:101D00001306E407F50798F0621B730B840B950B21
:101D100039F40A2661F0232B242B252B21F4089576
:101D20000A2609F4A140A6958FEF811D811D089513
:101D300097F99F6780E870E060E008959FEF80EC7E
:101D4000089500240A941616170618060906089521
:101D500000240A9412161306140605060895092E87
:101D60000394000C11F4882352F0BB0F40F4BF2BF6
:101D700011F460FF04C06F5F7F4F8F4F9F4F089536
:101D800057FD9058440F551F59F05F3F71F047952C
:101D9000880F97FB991F61F09F3F79F08795089511
:101DA000121613061406551FF2CF4695F1DF08C030
:101DB000161617061806991FF1CF8695710561054D
:101DC00008940895E894BB2766277727CB0197F9F5
:101DD00008958ADF08F48FEF08950BD0C0CFB1DFEC
:101DE00028F0B6DF18F0952309F0A2CFA7CF112471
:101DF000EACFC6DFA0F3959FD1F3950F50E0551FB2
:101E0000629FF001729FBB27F00DB11D639FAA274F
:101E1000F00DB11DAA1F649F6627B00DA11D661F9E
:101E2000829F2227B00DA11D621F739FB00DA11DBF
:101E3000621F839FA00D611D221F749F3327A00D79
:101E4000611D231F849F600D211D822F762F6A2F15
:101E500011249F5750408AF0E1F088234AF0EE0F9A
:101E6000FF1FBB1F661F771F881F91505040A9F7A7
:101E70009E3F510570F05CCFA6CF5F3FECF3983EDC
:101E8000DCF3869577956795B795F795E7959F5F0E
:101E9000C1F7FE2B880F911D9695879597F90895A8
:101EA00023DF880B990B0895629FD001739FF00187
:101EB000829FE00DF11D649FE00DF11D929FF00DDA
:101EC000839FF00D749FF00D659FF00D9927729F11
:101ED000B00DE11DF91F639FB00DE11DF91FBD019C
:101EE000CF0111240895A1E21A2EAA1BBB1BFD01EC
:101EF0000DC0AA1FBB1FEE1FFF1FA217B307E407E9
:101F0000F50720F0A21BB30BE40BF50B661F771F40
:101F1000881F991F1A9469F7609570958095909520
:101F20009B01AC01BD01CF010895EE0FFF1F05908D
:0A1F3000F491E02D0994F894FFCF1E
:101F3A007B226E616D65223A2267617573736961EE
:101F4A006E426C7572222C2261726773223A7B226E
:101F5A0076616C7565223A002C22706972223A0009
:101F6A007D7D006E616E00696E66006F7666002E7A
:101F7A000000E1000000000000010100000000CCA8
:101F8A000593066B0592057905F405F8050000002E
:0C1F9A00000E0C9306B00C6D0C600C00E7
:00000001FF
