:100000000C94C5010C94ED010C94ED010C94ED01E0
:100010000C94ED010C94ED010C94ED010C94ED01A8
:100020000C94ED010C9450070C943E100C94C510E8
:100030000C94ED010C94ED010C94ED010C94ED0188
:100040000C94ED010C94ED010C94ED010C94ED0178
:100050000C94ED010C94ED010C94ED010C94050948
:100060000C94ED010C94ED010C94ED010C94ED0158
:100070000C94ED010C94ED010C94ED010C94ED0148
:100080000C94ED010C94ED010C94ED010C94ED0138
:100090000C94ED010C94ED010C94ED010C94ED0128
:1000A0000C94ED010C94ED010C94ED0100C20100E3
:1000B0000100110011000C0000E100000A00250001
:1000C0002500210000960000190039003900360093
:1000D000127A00001F0046004600440080700000B5
:1000E00022004D004D004A00004B00003600750014
:1000F00075007200403800004A009C009C00990086
:10010000802500007200EC00EC00E900C012000045
:10011000E900DA01DA01D70160090000D701B6036E
:10012000B603B303B0040000B3036E076E076B079A
:10013000580200006E07DC0EDC0ED80E2C01000009
:10014000DC0EC11DC11DBE1D0000000024002700E3
:100150002A002D00300000000000250028002B00A0
:100160002E003100000000002300260029002C0092
:100170002F00040404040403040502020202040321
:100180000202020206060606060604040202020431
:100190000408020110408040102040804080080286
:1001A0000401804020100201108010204040000017
:1001B000000200080E0000030401000B0000000014
:1001C0000000000000000000000000000706050419
:1001D0000100080A0B0C0D09080B000202020100C5
:1001E000090400000102020000052400100105249A
:1001F000010101042402060524060001070581030C
:1002000010004009040100020A0000000705020274
:100210004000000705830240000004030904220394
:10022000410072006400750069006E006F002000DC
:100230004D006900630072006F0020002000200064
:100240001803410072006400750069006E006F00C1
:1002500020004C004C00430012010002000000404E
:100260004123378000010102000112010002020057
:1002700000404123378000010102000100C180815C
:10028000C105010902A1010901A1008501050919A2
:10029000012903150025019503750181029501755A
:1002A00005810305010930093109381581257F755C
:1002B0000895038106C0C005010906A10185020554
:1002C0000719E029E71500250175019508810295B8
:1002D0000175088103950675081500256505071940
:1002E0000029658100C00904020001030000000923
:1002F000210101000122650007058403400001007F
:10030000000000000000002A2B2800000000000070
:100310000000000000000000000000000000002CB1
:100320009EB4A0A1A2A434A6A7A5AE362D37382727
:100330001E1F20212223242526B333B62EB7B89FB3
:100340008485868788898A8B8C8D8E8F90919293F5
:100350009495969798999A9B9C9D2F3130A3AD3593
:100360000405060708090A0B0C0D0E0F10111213D5
:100370001415161718191A1B1C1DAFB1B0B50000C3
:100380003F02DB0B780FC613380211241FBECFEFDC
:10039000DAE0DEBFCDBF11E0A0E0B1E0E8E0FFE2CF
:1003A00002C005900D92A435B107D9F712E0A4E57B
:1003B000B1E001C01D92AE31B107E1F713E0C8E82A
:1003C000D3E004C02297FE010E947317C038D10702
:1003D000C9F70E94A60C0C9477170C940000FC013E
:1003E00088279927E89421912032E9F3293010F0E9
:1003F0002E30C8F32B3241F02D3239F4689404C00A
:100400000E940D02820F911D219120532A30C0F3CA
:100410001EF4909581959F4F08957AE0979F902DB7
:10042000879F802D910D11240895EF920F931F93B4
:100430008130910581F46F5F7F4FB1F484E591E0E5
:1004400068E040E050E020E030E000E010E0EE2422
:100450000E94B00609C0892B39F46F5F7F4F21F4E9
:1004600084E591E00E9475061F910F91EF90089529
:1004700080E090E06FEF7FEF0E941502089581E029
:1004800090E06FEF7FEF0E94150208958F929F9288
:10049000AF92BF92CF92DF92EF92FF920F931F9392
:1004A00084E591E00E94D5054B015C01C09061019B
:1004B000D0906201E0906301F0906401A701960181
:1004C0000E94CF140E94A0159B0177FF03C03095B6
:1004D00021953F4FB901882777FD8095982F0E947D
:1004E000D31520910E0130910F01409110015091D0
:1004F00011010E94831618161CF07501640108C0D2
:100500008092610190926201A0926301B0926401B5
:10051000C701B60120E030E048E452E40E943415FF
:1005200088235CF40F2EF0E0CF2EF0E0DF2EF8E40D
:10053000EF2EF2E4FF2EF02D14C0C701B60120E02B
:1005400030E046E153E40E948316181654F40F2E4F
:10055000F0E0CF2EF0E0DF2EF6E1EF2EF3E4FF2EF9
:10056000F02D00D000D00DB71EB70F5F1F4FC70191
:10057000B6010E94A01524E630E040E050E0F8010A
:10058000208331834283538326E930E040E050E00A
:10059000F2E3EF2EF12C012D112DE4E1AE2EB12C62
:1005A000C12CD12C0E940E120F900F900F900F9023
:1005B0000E94D315AB01BC0186EF91E022E030E050
:1005C0000E94C20E86EF91E00E94EF0C68EC70E092
:1005D00080E090E00E944D091F910F91FF90EF90F5
:1005E000DF90CF90BF90AF909F908F90089586EF4F
:1005F00091E060E875E20E94900B84E591E00E9432
:10060000D5056093610170936201809363019093BB
:10061000640108953F924F925F926F927F928F9202
:100620009F92AF92BF92CF92DF92EF92FF920F9381
:100630001F93CF93DF93FC01362EA385B4856C9076
:1006400011967C90119712968C90129713969C900D
:1006500013978781482E5524ED01EE24E394FF245F
:10066000F39401E010E02FC0DC80CD80BE80AF802D
:100670006D2D7C2D8B2D9A2D288139814A815B81AE
:100680000E943415882319F0FF24F39401C0F394D9
:100690006D2D7C2D8B2D9A2D9301A4010E94341574
:1006A000882311F4E3940CC0332019F4EF1418F0EC
:1006B00007C0FE1429F46D2C7C2C8B2C9A2CEF2C6B
:1006C0000F5F1F4F24960415150574F2B301C40182
:1006D000DF91CF911F910F91FF90EF90DF90CF901E
:1006E000BF90AF909F908F907F906F905F904F9052
:1006F0003F900895EF92FF920F931F93CF93DF9354
:10070000EC0161E00E940A037B018C01CE0160E0F4
:100710000E940A039B01AC01B701C8010E94341575
:10072000882379F08F81869590E0880F991F880F34
:10073000991FEB85FC85E80FF91FE080F1800281AD
:100740001381B701C801DF91CF911F910F91FF90E5
:10075000EF9008958F929F92AF92BF92CF92DF92C7
:10076000EF92FF920F931F93DF93CF93CDB7DEB736
:100770007C018DB69EB6A62EBB248DB79EB78A1976
:100780009B090FB6F8949EBF0FBE8DBFCDB6DEB6E7
:100790000894C11CD11CF701A185B285ED91FC9193
:1007A00011970284F385E02DCD010995D7011996A3
:1007B000ED91FC911A97A081B18114962D913C91F5
:1007C0001597CF01F9010995892B81F3D701199666
:1007D000ED91FC911A97A081B18116962D913C91D3
:1007E0001797CF01F901099582359105F9F600E0D7
:1007F00010E021C0D7011996ED91FC911A97A081C4
:10080000B18114962D913C911597CF01F90109956D
:10081000892B81F3F701A185B285ED91FC911197A8
:100820000680F781E02DCD010995F601E00FF11F5B
:1008300080830F5F1F4F0A151B05E4F2C6010E945B
:10084000EF010FB6F8949EBE0FBE8DBECF91DF9123
:100850001F910F91FF90EF90DF90CF90BF90AF90DE
:100860009F908F900895FC01818192818130910544
:10087000D9F18230910509F478C0009709F0AFC032
:100880008381948181309105B9F08230910519F10D
:10089000009709F0A4C0808161E020E432E44FE0D9
:1008A00050E00E94F40A0E94D11520E030E043E1BC
:1008B00053E40E94381534C0808161E020E432E4C2
:1008C0004FE050E00E94F40A0E94D11520E030E091
:1008D00048E652E480C0808161E020E432E44FE0E9
:1008E00050E00E94F40A71C08381948181309105A7
:1008F000F1F08230910539F1009709F070C08081E4
:100900000E94FC09AA2797FDA095BA2FBC01CD0132
:100910000E94D31520E030E040E05FE30E9487169C
:100920000E94A015882777FD8095982F32C080817E
:100930000E94FC09AA2797FDA095BA2FBC01CD0102
:100940000E94D3154AC080810E94FC09AA2797FD06
:10095000A095BA2FBC01CD010E94D31520E030E054
:1009600040EA50E40E94871632C08381948181302E
:100970009105C1F08230910501F1009781F5CF0119
:1009800063E00E94AA03AA2797FDA095BA2FBC0195
:10099000CD010E94D3152CE53FE842E250E40E94CD
:1009A00087161BC0CF0163E00E94AA03A0E0B0E05D
:1009B000BC01CD010E94D11510C0CF0164E00E949E
:1009C000AA03A0E0B0E0BC01CD010E94D11520E057
:1009D00030E040E251E40E943815E62F692F2E2FB7
:1009E000372F482F562FB901CA0108952F923F92F1
:1009F0004F925F926F927F928F929F92AF92BF922F
:100A0000CF92DF92EF92FF920F931F93DF93CF93DA
:100A100000D000D000D0CDB7DEB75C01CC24DD24FF
:100A2000EE24FF242CC0D5011B960D911C911C9720
:100A30000E0D1F1DC5010E943304F80160837183F0
:100A400082839383D50111968D919C911297019782
:100A500079F417968C91179790E00197C816D906EC
:100A600039F018966C9170E080E090E00E944D099A
:100A70000894C11CD11CE4E0F0E0EE0EFF1ED5018D
:100A800017968C9190E0C816D9066CF2E1E02E2EF4
:100A9000312C74E0472E512C68C0F5012385348534
:100AA000240D351DD9018D919D910D90BC91A02DE6
:100AB00089839A83AB83BC83F1013197FE83ED83F5
:100AC0006CEF662E6FEF762E640C751C420116C01B
:100AD000080D191DD801CD92DD92ED92FC9213976D
:100AE000ED81FE813197FE83ED838CEF9FEF680EE1
:100AF000791E880E991EEF5FFF4FB1F0D5011B964E
:100B00000D911C911C97F801E60DF71DC080D18056
:100B1000E280F38069817A818B819C81A7019601B3
:100B20000E94341587FDD4CFED81FE813196EE0F02
:100B3000FF1FEE0FFF1FFE83ED83D5011B96ED9186
:100B4000FC911C978D819E81E80FF91F89819A8104
:100B5000AB81BC8180839183A283B3830894211CE1
:100B6000311CA4E0B0E04A0E5B1EF501878190E0E5
:100B7000281639060CF491CF26960FB6F894DEBFEE
:100B80000FBECDBFCF91DF911F910F91FF90EF90DE
:100B9000DF90CF90BF90AF909F908F907F906F909D
:100BA0005F904F903F902F900895CF92DF92EF92F9
:100BB000FF920F931F93CF93DF93EC010E94F604F3
:100BC0008D819E818330910509F1843091053CF43B
:100BD0008130910561F0029709F076C014C084302D
:100BE000910509F46EC0059709F06EC04AC08F8167
:100BF000869590E0880F991F880F991FEB85FC85DB
:100C0000E80FF91F63C0CE0161E002C0CE0160E0D1
:100C10000E940A037B018C015DC0CE010E94330457
:100C20007B018C0160E070E040E050E012C0FD010B
:100C3000E40FF51F4C5F5F4FA40FB51F8D919D9181
:100C40000D90BC91A02D80839183A283B3836F5FAD
:100C50007F4F8F81282F30E0C9010197AB85BC857C
:100C60006817790724F32C193D09220F331F220F2F
:100C7000331FA20FB31FED92FD920D931C93139798
:100C800003C0B1E0CB2ED12CEB85FC85E080F18058
:100C9000028113818F819601281B3109C901880FB8
:100CA000991F880F991FE81BF90BB701C801208114
:100CB0003181428153810E943415882309F0ADCFE0
:100CC00009C0CE010E947A03EB85FC85E080F180AB
:100CD00002811381B701C801DF91CF911F910F915C
:100CE000FF90EF90DF90CF900895CF93DF93EC01CA
:100CF0008B859C85009711F00E94B90C89859A8597
:100D00000E94BC0CDF91CF910895CF93DF93EC014B
:100D10008D819E8181309105A4F0853091051CF074
:100D2000059779F409C08F81882311F485E00AC002
:100D300080FF09C08F5F06C08F81882321F482E085
:100D400001C081E08F838F8190E0880F991F880F09
:100D5000991F0E94BF0C9C878B87DF91CF910895CC
:100D6000EF92FF920F931F93CF93DF93EC01F62E38
:100D700068835A8349833C832B831E830D83EF82D0
:100D800042305105A9F489E190E00E94C20C182F6D
:100D9000092F6F2D41E00E94E40819870A87812FEF
:100DA000902F40E855E260E070E00E947A0704C0AE
:100DB000862F60E00E94340ACE010E948506DF91F2
:100DC000CF911F910F91FF90EF9008950F931F9374
:100DD000CF93DF93FC01708D76957170A685B785F2
:100DE0009585772329F08C91892309F454C004C098
:100DF0008C91892309F04FC08089918920E0019767
:100E00002FEF8F3F9207D9F7C289D389A685B7857F
:100E1000158560E031E040E050E000E0CE01202F99
:100E200001972FEF8F3F9207D9F78C91812311F013
:100E3000632B03C0832F80956823330F4F5F5F4F71
:100E40004830510559F78489958920E001972FEFA3
:100E50008F3F9207D9F7711160958091A70120917A
:100E6000A80190E001968F73907030E0821793078D
:100E700079F0E091A701F0E0E959FE4F608380919D
:100E8000A70190E001968F7390708093A70103C033
:100E9000808D8160808FDF91CF911F910F91089598
:100EA0001F920F920FB60F9211242F933F934F93DF
:100EB0005F936F937F938F939F93AF93BF93EF93C2
:100EC000FF938091650190916601009711F00E9457
:100ED000E606FF91EF91BF91AF919F918F917F9126
:100EE0006F915F914F913F912F910F900FBE0F9097
:100EF0001F901895CF92DF92EF92FF920F931F935E
:100F0000CF93DF93EC017A018B011F8A1E8A1D8A21
:100F10001C8A1B8A1A8A198A188A20E030E0690123
:100F2000CC0CDD1CC20ED31EB601660F771F660FF8
:100F3000771FAB0144555F4FFA0185919591A591BB
:100F4000B4918E159F05A007B107E9F4FB01E055A8
:100F5000FF4F85919491998B888BFB01EE54FF4F45
:100F6000859194919B8B8A8BFB01EC54FF4F85916B
:100F700094919D8B8C8BFB01EA54FF4F859194914A
:100F80009F8B8E8B06C02F5F3F4F2D30310509F0B0
:100F9000C6CF8C899D89892B09F457C09C85892FE0
:100FA0008850843038F08650843020F09A51933045
:100FB00008F043C0809168008160809368002C85B0
:100FC000922F9850943090F0822F8E50843070F091
:100FD0008C50833008F451C0A0E0B0E0833018F0AA
:100FE000E0E0F0E007C0EBE6F0E004C0EBE6F0E0A4
:100FF000ABE6B0E04081943020F430E02450304043
:1010000013C02E3011F488E016C02F3011F482E0A6
:1010100012C0203111F484E00EC0213111F481E0BE
:101020000AC030E02651304081E090E002C0880FD5
:10103000991F2A95E2F7842B8C938E899F8920E053
:1010400001972FEF8F3F9207D9F78091650190911B
:1010500066018C179D07A1F0888D8E7F888F9FB7C2
:10106000F8941092A7018091A7018093A801D093D2
:101070006601C09365019FBF03C0ABE6B0E0AECF91
:10108000DF91CF911F910F91FF90EF90DF90CF9064
:10109000089520916501309166012817390731F4D0
:1010A0009091A8018091A701981719F42FEF3FEFB5
:1010B0000FC0E091A801F0E0E959FE4F2081809136
:1010C000A80190E001968F7390708093A80130E0A2
:1010D000C9010895209165013091660128173907EB
:1010E00019F020E030E00EC08091A7012091A80106
:1010F00090E0805C9F4F821B910960E470E00E9449
:101100000D179C01C901089521E030E0FC013383F3
:10111000228380E090E0089520916501309166017E
:101120002817390749F49FB7F8941092A7018091C6
:10113000A7018093A8019FBF089520916501309178
:1011400066012817390731F49091A8018091A70111
:10115000981719F42FEF3FEF0AC0E091A801F0E0D3
:10116000E959FE4F8081282F332727FD3095C9018B
:1011700008951F93CF93DF93EC01162F862F60E025
:101180000E94340A888D81FD04C0812F61E00E9495
:10119000C10A1C87212F30E0C90180579E4FFC01F6
:1011A00084918D872E583E4FF9016491E62FF0E02F
:1011B000EE0FFF1FEC59FE4F859194919F878E870C
:1011C000DF91CF911F910895FC011382128288EE66
:1011D00093E0A0E0B0E084839583A683B78387E2A1
:1011E00091E091838083118A108A138A128A158A6A
:1011F000148A178A168A808D4170440F8C7F842B45
:10120000808FCF010E94B90808951F920F920FB6E8
:101210000F9211242F933F938F939F93AF93BF937C
:101220008091AD019091AE01A091AF01B091B0015C
:101230003091B1010196A11DB11D232F2D5F2D37D6
:1012400020F02D570196A11DB11D2093B10180936F
:10125000AD019093AE01A093AF01B093B001809126
:10126000A9019091AA01A091AB01B091AC010196A6
:10127000A11DB11D8093A9019093AA01A093AB0178
:10128000B093AC01BF91AF919F918F913F912F91FE
:101290000F900FBE0F901F9018959B01AC017FB768
:1012A000F8948091A9019091AA01A091AB01B0910D
:1012B000AC0166B5A89B05C06F3F19F00196A11D52
:1012C000B11D7FBFBA2FA92F982F8827860F911D98
:1012D000A11DB11D62E0880F991FAA1FBB1F6A954F
:1012E000D1F7BC012DC0FFB7F8948091A90190916E
:1012F000AA01A091AB01B091AC01E6B5A89B05C0D5
:10130000EF3F19F00196A11DB11DFFBFBA2FA92F04
:10131000982F88278E0F911DA11DB11DE2E0880F27
:10132000991FAA1FBB1FEA95D1F7861B970B885EF2
:101330009340C8F2215030404040504068517C4FAB
:10134000211531054105510571F60895789484B54C
:10135000826084BD84B5816084BD85B5826085BDB1
:1013600085B5816085BDEEE6F0E080818160808397
:10137000E1E8F0E01082808182608083808181607A
:101380008083E0E8F0E0808181608083E1E9F0E043
:10139000808182608083808181608083E0E9F0E0E9
:1013A000808181608083E1ECF0E0808184608083D3
:1013B000808182608083808181608083E3ECF0E0C3
:1013C000808181608083E0ECF0E0808182608083B6
:1013D000E2ECF0E0808181608083EAE7F0E08081E8
:1013E000846080838081826080838081816080834B
:1013F0008081806880830895823108F08251E82FCF
:10140000F0E0E453FE4FE49120917B008E2F86950F
:101410008695869590E08170907035E0880F991FD1
:101420003A95E1F72F7D282B20937B00E770809180
:1014300012018295880F880F807C8E2B80937C0010
:1014400080917A00806480937A0080917A0086FD92
:10145000FCCF2091780040917900942F80E030E01B
:10146000282B392BC9010895CF93DF93482F50E0E3
:10147000CA0180579E4FFC0134914E585E4FFA01CD
:101480008491882369F190E0880F991FFC01E85B43
:10149000FE4FA591B491FC01EA5AFE4FC591D4913B
:1014A000662351F42FB7F8948C91932F909589234C
:1014B0008C93888189230BC0623061F42FB7F89434
:1014C0008C91932F909589238C938881832B88838B
:1014D0002FBF06C09FB7F8948C91832B8C939FBF2E
:1014E000DF91CF910895883071F1893068F48230AE
:1014F00031F1833020F4813009F042C01DC08330C7
:1015000089F08430E9F512C08B3059F18C3028F421
:101510008930E9F08A30A1F51EC08C3031F18E306F
:1015200079F529C0809180008F7703C08091800079
:101530008F7D80938000089584B58F7702C084B535
:101540008F7D84BD0895809190008F7707C0809132
:1015500090008F7D03C080919000877F80939000E2
:1015600008958091C0008F7703C08091C0008F7D67
:101570008093C00008958091C200877F8093C2004D
:101580000895FF920F931F93F62E482F50E0CA0143
:1015900082559E4FFC012491CA0180579E4FFC0149
:1015A00014914E585E4FFA0104910023C9F0222392
:1015B00019F0822F0E94730AE02FF0E0EE0FFF1F58
:1015C000EA5AFE4FA591B4919FB7F894FF2021F4F9
:1015D0008C911095812302C08C91812B8C939FBF9D
:1015E0001F910F91FF9008958F929F92AF92BF929B
:1015F000CF92DF92EF92FF920F931F93CF93DF93DF
:10160000A82FB0E0CD0180579E4FFC018490AE58CA
:10161000BE4FFD018491662311F4992401C0982CDA
:101620006FEFA62E6FEFB62E6FEFC62E6FE0D62EA1
:10163000A222B322C422D522682F70E0660F771F42
:101640006C597E4FEE24FF248701FB01A591B491D4
:101650000BC0EA14FB040C051D0509F44EC00894E8
:10166000E11CF11C011D111D8C918821891589F344
:101670000CC0EA14FB040C051D0509F43EC00894D7
:10168000E11CF11C011D111D03C0FB01A591B491CA
:101690008C918821891569F720E030E040E050E026
:1016A000FB01C591D4910FC0DA01C9018E0D9F1DB8
:1016B000A01FB11F8A159B05AC05BD05F1F02F5F7A
:1016C0003F4F4F4F5F4F88818821891569F3CA01C9
:1016D000B90125E130E040E050E00E94EE169B01A8
:1016E000AC01205F3F4F4F4F5F4F84E056954795C9
:1016F000379527958A95D1F704C020E030E040E087
:1017000050E0B901CA01DF91CF911F910F91FF9075
:10171000EF90DF90CF90BF90AF909F908F90089503
:1017200008952091F2013091F3018091F40190919C
:10173000F501281B390B2F733070C90108952091D2
:10174000F2013091F3018091F4019091F501281795
:10175000390719F42FEF3FEF09C0E091F401F09140
:10176000F501EE54FE4F8081282F30E0C901089525
:101770002091F2013091F3018091F4019091F501F3
:101780002817390719F42FEF3FEF13C0E091F40148
:10179000F091F501EE54FE4F20818091F40190917B
:1017A000F50101968F7390709093F5018093F40189
:1017B00030E0C90108951092F9011092F80188EE05
:1017C00093E0A0E0B0E08093FA019093FB01A09336
:1017D000FC01B093FD0187E391E09093F7018093C2
:1017E000F60108950F931F93DF93CF930F92CDB718
:1017F000DEB78C01698380911A01882369F083E048
:10180000BE016F5F7F4F41E050E00E94990F1816B4
:10181000190614F49C0107C081E090E0F80193835D
:10182000828320E030E0C9010F90CF91DF911F91BA
:101830000F91089583E00E946E0F0895CF93DF9378
:1018400012C082E00E94F90E2FEF8F3F9207C9F07D
:10185000E091F201F091F301EE54FE4F8083D093BA
:10186000F301C093F201C091F201D091F3012196EE
:10187000CF73D0708091F4019091F501C817D9070A
:1018800001F7DF91CF910895FC0180818E5F808305
:1018900080E868ED71E042E450E00E94120F089584
:1018A000FC0181819081913A59F4813209F04CC058
:1018B00080E063E171E047E050E00E94120F42C017
:1018C000913209F041C0803239F483E191E067E060
:1018D00070E00E94560F36C0823209F035C0828116
:1018E00080931A018091130190911401A091150128
:1018F000B0911601805B9440A040B04019F58091F2
:101900001A0180FD12C087E797E790930108809342
:1019100000082BE088E190E00FB6F894A89580933A
:1019200060000FBE209360000DC088E10FB6F894F0
:1019300080936000109260000FBEA895109201087D
:101940001092000881E0089580E00895CF93DF931E
:101950000E94A6098CE092E00E94790F0E94F70293
:10196000C0E0D0E00E9446022097E1F30E94000010
:10197000F9CF0E94F41208950E94F41208950E9473
:10198000571208950E9457120895CF92DF92EF9256
:10199000FF920F931F93CF93DF937C016B018A011A
:1019A000C0E0D0E00FC0D6016D916D01D701ED917F
:1019B000FC910190F081E02DC7010995C80FD91F56
:1019C000015010400115110571F7CE01DF91CF9143
:1019D0001F910F91FF90EF90DF90CF900895EF92BD
:1019E000FF920F931F938C01DC01ED91FC9101900C
:1019F000F081E02D6DE009957C01D801ED91FC911D
:101A00000190F081E02DC8016AE009959C012E0D3E
:101A10003F1DC9011F910F91FF90EF900895CF9343
:101A2000DF93EC016115710519F420E030E00FC07F
:101A3000DB010D900020E9F71197A61BB70BE88199
:101A4000F9810280F381E02DAD0109959C01C90166
:101A5000DF91CF9108954F925F927F928F929F92E4
:101A6000AF92BF92CF92DF92EF92FF920F931F93AC
:101A7000DF93CF93CDB7DEB7A1970FB6F894DEBF53
:101A80000FBECDBF2C01742ECB01223008F42AE00A
:101A900019A231E2C32ED12CCC0EDD1E822E992448
:101AA000AA24BB24672D752FA50194010E9420173D
:101AB00079018A01C801B701A50194010E94EE16BF
:101AC000472D461B0894C108D1084A3014F4405DE4
:101AD00001C0495CF6014083E114F10401051105E0
:101AE00021F07E2C5F2DC801DDCFC201B6010E941E
:101AF0000F0DA1960FB6F894DEBF0FBECDBFCF91EC
:101B0000DF911F910F91FF90EF90DF90CF90BF90EA
:101B1000AF909F908F907F905F904F900895DC01E1
:101B20002115310541F4ED91FC910190F081E02DFA
:101B3000642F099508950E942B0D0895CF92DF928E
:101B4000EF92FF920F931F93CF93DF93EC016A0103
:101B50007B012115310541F4E881F9810190F08183
:101B6000E02D642F09951FC02A303105D1F477FF8D
:101B700017C0E881F9810190F081E02D6DE20995AF
:101B80008C0144275527BA014C195D096E097F095C
:101B9000CE012AE00E942B0D9801280F391F04C0A6
:101BA0002AE00E942B0D9C01C901DF91CF911F916A
:101BB0000F91FF90EF90DF90CF9008957F928F92DA
:101BC0009F92AF92BF92CF92DF92EF92FF920F93CC
:101BD0001F93CF93DF934C017A018B01722ECB01BF
:101BE000BA01A80197010E94EA16882321F0C401D6
:101BF00060E071E021C0C0E0D0E057016801E894E6
:101C0000D7F8C601B5012FEF3FEF4FE75FE70E941E
:101C1000EA16882351F4C601B5012FEF3FEF4FE7D5
:101C20005FE70E943415181614F0C1E0D0E0219748
:101C300039F0C40164E071E00E940F0DEC0193C023
:101C4000C801B7012FEF3FEF4FE75FE40E94831613
:101C5000181654F0C801B7012FEF3FEF4FE75FECC4
:101C60000E943415882324F4C40168E071E0E4CFB5
:101C7000C801B70120E030E040E050E00E94341598
:101C800087FD03C0C0E0D0E00EC0D401ED91FC910F
:101C90000190F081E02DC4016DE20995EC0117FB84
:101CA000109517F9109520E030E040E05FE3DD2467
:101CB0000BC0CA01B90120E030E040E251E40E94CB
:101CC00038159B01AC01D394D71498F3C801B70120
:101CD0000E94D0145B016C010E94A5157B018C0150
:101CE000C401B801A7012AE030E00E948F0DC80F9F
:101CF000D91F772039F0C4016CE071E00E940F0D0C
:101D0000C80FD91FC801B7010E94D1159B01AC01B2
:101D1000C601B5010E94CF1424C020E030E040E2AB
:101D200051E40E9487167B018C010E94A0155B0183
:101D30006C01CC24B7FCC094DC2CC401B601A50115
:101D40002AE030E00E949E0DC80FD91FC601B501E0
:101D50000E94D3159B01AC01C801B7010E94CF14AA
:101D60007A947720D1F6CE01DF91CF911F910F9118
:101D7000FF90EF90DF90CF90BF90AF909F908F90AB
:101D80007F9008950E94DE0D0895282F809106020D
:101D90008823C1F057FF1AC015C0289A90930502F6
:101DA0008091F1008193E217F307B9F741155105CE
:101DB00039F08091F200882319F48BE68093E800D3
:101DC000AFBF02C04FEF5FEFCA010895AFB7F894FD
:101DD00027702093E9008091F200282F30E024172B
:101DE00035070CF4A901FB019B01240F311D94E67A
:101DF000DACFDF93CF930F92CDB7DEB7BE016F5F1F
:101E00007F4F41E050E00E94C50E019719F02FEF7F
:101E10003FEF03C08981282F30E0C9010F90CF9197
:101E2000DF910895FF920F931F93F82E142F052F23
:101E30004091090250910A02212F302FC901DC0183
:101E4000FB016EEF29C0F7FE02C0949101C09081A2
:101E5000209107023091080224173507ACF48091D5
:101E6000E8008570E1F38091E80082FF03C02FEF66
:101E70003FEF17C09093F100C90101968F739070E6
:101E8000892B11F46093E8002F5F3F4F30930802D5
:101E900020930702119731961097A9F6812F902F62
:101EA0009C01C9011F910F91FF9008959C018091A1
:101EB000E80082FFFCCFF901260F311D03C080919D
:101EC000F1008193E217F307D1F7289A84E6809313
:101ED00005028BEF8093E800CB0108958093E90021
:101EE0008091F200882319F08AE38093E800089536
:101EF00008951092060281E08093D70080EA8093D3
:101F0000D80082E189BD09B400FEFDCF61E070E038
:101F100080E090E00E944D0980E98093D8008CE039
:101F20008093E2001092E000559A209A5D982898DC
:101F300008955F926F927F928F929F92AF92BF921D
:101F4000CF92DF92EF92FF920F931F93CF93DF9385
:101F5000E82E842E752E80910602882371F18B0164
:101F6000242F352FC901EC017AEFF72E67E0962E6A
:101F70009E2050E4552E8E2D90E040E2A42EB12CF0
:101F8000A822B9223AE3632E20E4C22ED12CC82223
:101F9000D92258C09FB7F8949092E9008091E80048
:101FA00085FD02C020E004C08091F200252D281B91
:101FB0009FBF222361F4FA9419F42FEF3FEF4DC035
:101FC00061E070E080E090E00E944D093BC0822F0C
:101FD00090E0C817D9070CF42C2FC21BD1094FB7BA
:101FE000F8949092E900A114B10421F406C0109273
:101FF000F10021502223D9F719C0E7FC03C0F801F2
:10200000922F10C0C801322F06C0FC010196E49146
:10201000E093F10031503323C1F706C081918093E2
:10202000F10091509923D1F7020F111D8091E80022
:1020300085FF05C0209729F4C114D10411F06092E6
:10204000E8004FBF209709F0A5CF5D9A84E6809302
:102050000402282D372DC9019C01C901DF91CF91C0
:102060001F910F91FF90EF90DF90CF90BF90AF90B6
:102070009F908F907F906F905F9008951F920F9226
:102080000FB60F9211242F933F934F935F936F934B
:102090007F938F939F93AF93BF93EF93FF93809121
:1020A000E1001092E100982F83FF0FC01092E90029
:1020B00081E08093EB001092EC0082E38093ED00CE
:1020C0001092060288E08093F00092FF34C083E013
:1020D0008093E9008091F200882319F08AE38093CD
:1020E000E8008FB7F89492E09093E9009091F200A5
:1020F0008FBF992321F086EF91E00E941E0C809102
:102100000402882351F080910402815080930402DC
:1021100080910402882309F45D9880910502882348
:1021200051F0809105028150809305028091050253
:10213000882309F42898FF91EF91BF91AF919F9167
:102140008F917F916F915F914F913F912F910F9060
:102150000FBE0F901F9018950F931F93DF93CF938F
:102160000F92CDB7DEB719828E010F5F1F4FC801E6
:102170000E94440CC8010E94C314898190E00F9012
:10218000CF91DF911F910F9108951F920F920FB67B
:102190000F921124EF92FF921F932F933F934F932F
:1021A0005F936F937F938F939F93AF93BF93EF93BF
:1021B000FF93DF93CF93CDB7DEB76197DEBFCDBF7F
:1021C0001092E9008091E80083FF0FC1FE01319673
:1021D0009E01275F3F4F03C08091F1008193E2177A
:1021E000F307D1F7289A84E68093050282EF809363
:1021F000E800998197FF05C08091E80080FFFCCF3F
:1022000003C08EEF8093E800292F30E0C90180766B
:102210009070892B09F0C2C08A81882329F410921A
:10222000F1001092F100D6C0813009F4D3C08330A0
:1022300009F4D0C0853049F48091E80080FFFCCFDC
:102240008B8180688093E300C5C0863009F07CC034
:102250001C81EF80F8841230C1F51092E9001092D1
:1022600008021092070210920A02109209020E94BC
:10227000AC1099E0FE013996DF01292F1D922A95B5
:10228000E9F799871A8791E09E8790E8988B9AEFF3
:10229000998B2091070230910802275F3F4F3C87BE
:1022A0002B878D871092E900109208021092070286
:1022B000F0920A02E092090280E0BF0149E050E09A
:1022C0000E94120F0E94AC1085C01092E90010927B
:1022D000080210920702F0920A02E09209021232FA
:1022E00041F482E290E00E94BB14892B09F476C08D
:1022F00071C0113079F488E0E816F10419F481E036
:1023000080930B0280910B02882309F06BC0E8E5F3
:10231000F2E013C0133009F061C08B81882319F4F7
:10232000EAE1F2E00AC0823019F4EEE1F2E005C021
:10233000813009F053C0E0E4F2E0449180E8BF014D
:1023400050E00E94120F46C0873009F447C0883021
:1023500021F481E08093F1003DC08930D9F52370EC
:102360003070232BD9F5EDE7F2E091E031E026E380
:102370009093E9003093EB0084918093EC002093DC
:10238000ED009F5F3196953099F78EE78093EA00D4
:102390001092EA008B81809306021CC08F81988581
:1023A0001092E900109208021092070290930A021C
:1023B000809309028D81882329F4CE0101960E9421
:1023C000500C06C0823051F4CE0101960E948C134D
:1023D000882321F08EEF8093E80007C081E280938C
:1023E000EB0003C0EAE6F2E0A8CF6196DEBFCDBF06
:1023F000CF91DF91FF91EF91BF91AF919F918F911D
:102400007F916F915F914F913F912F911F91FF901D
:10241000EF900F900FBE0F901F9018952F923F9244
:102420004F925F926F927F928F929F92AF92BF92E4
:10243000CF92DF92EF92FF920F931F93DF93CF9390
:10244000CDB7DEB73B014C0119012A016D897E89A8
:102450008F89988D6A197B098C099D09621A730A04
:10246000840A950AA40193010E94EE16E218F3086B
:1024700004091509A80197010E9442172A0D3B1D66
:102480004C1D5D1DB901CA01CF91DF911F910F91C4
:10249000FF90EF90DF90CF90BF90AF909F908F9084
:1024A0007F906F905F904F903F902F9008950F9383
:1024B0001F93CF93DF93BC018230910510F462E04B
:1024C00070E0E0911C02F0911D02A0E0B0E040E05D
:1024D00050E024C08081918186179707D0F086173D
:1024E000970771F482819381109729F013969C933A
:1024F0008E9312972CC090931D0280931C0227C0CC
:102500004115510519F08417950718F4EF018D0155
:10251000AC01DF01828193819C01F9013097D1F6F2
:1025200041155105F9F0CA01861B970B84309105BE
:1025300080F48A819B810115110521F0F8019383B4
:10254000828304C090931D0280931C02FE01329688
:1025500045C0FE01E80FF91F6193719302979983BB
:1025600088833CC080911A0290911B02892B41F410
:1025700080911D0190911E0190931B0280931A027D
:1025800040911F01509120014115510541F44DB773
:102590005EB780911B0190911C01481B590B209143
:1025A0001A0230911B0224173507B0F4CA01821BAE
:1025B000930B8617970780F0AB014E5F5F4F841730
:1025C000950750F0420F531F50931B0240931A027D
:1025D000F9016193719302C0E0E0F0E0CF01DF9177
:1025E000CF911F910F910895CF93DF939C01009796
:1025F00009F48FC0EC0122971B821A8260911C02A1
:1026000070911D026115710581F488819981820F95
:10261000931F20911A0230911B022817390739F5B0
:10262000D0931B02C0931A0274C0DB0140E050E05B
:10263000AC17BD0708F1BB83AA83FE01219131913C
:10264000E20FF31FAE17BF0779F48D919C9111979C
:10265000280F391F2E5F3F4F3983288312968D91A3
:102660009C9113979B838A834115510571F4D093F4
:102670001D02C0931C024DC012968D919C91139720
:10268000AD01009711F0DC01D3CFDA011396DC9392
:10269000CE931297FA0121913191E20FF31FCE17D9
:1026A000DF0769F488819981280F391F2E5F3F4F1A
:1026B000FA01318320838A819B8193838283E0E0C6
:1026C000F0E0DB0112968D919C911397009719F021
:1026D000BC01FD01F6CFAB014E5F5F4FDB018D9179
:1026E0009C91840F951F20911A0230911B0228178C
:1026F000390779F4309729F410921D0210921C02C8
:1027000002C0138212824250504050931B024093E9
:102710001A02DF91CF910895FC0191818081813A65
:1027200031F4913089F080E0933089F40DC081322A
:1027300069F49B3021F482818093210105C09A3095
:1027400029F482818093220181E0089580E0089538
:10275000EF92FF920F931F938C01E62EDC01ED9117
:10276000FC910480F581E02D0995F82ED801ED91BA
:10277000FC910680F781E02DC8016E2D09958F2D03
:1027800090E01F910F91FF90EF90089510920D022D
:10279000109211021092100289E491E090930F02BE
:1027A00080930E020895EF92FF920F931F93DF9391
:1027B000CF930F92CDB7DEB789838B017A0184E086
:1027C000BE016F5F7F4F41E050E00E94990F84E4AB
:1027D000B801A7010E94990F0F90CF91DF911F912F
:1027E0000F91FF90EF90089582E048E050E00E9442
:1027F000D3130895FC011682178210861186128663
:10280000138614823496BF010E94F4130895DC01EC
:10281000683810F0685829C0E62FF0E067FF13C051
:10282000E058F04081E090E002C0880F991FEA95DF
:10283000E2F7809514962C911497282314962C93E4
:10284000149760E012C0E150FD4F6491662319F4C3
:1028500020E030E01DC067FF08C014968C911497EB
:102860008D7F14968C9314976F77FD0190E066230B
:1028700021F08681861709F416829F5F3196963083
:10288000B1F7CD011496BD010E94F41321E030E0B0
:10289000C9010895CF93DF93DC01683810F06858C0
:1028A00025C0E62FF0E067FF12C0E058F04081E05D
:1028B00090E002C0880F991FEA95E2F714962C91D8
:1028C0001497282B14962C93149760E00FC0E150B6
:1028D000FD4F64916623D9F167FF08C014968C916F
:1028E0001497826014968C9314976F7716968C9138
:1028F00016978617A9F117968C911797861781F16D
:1029000018968C911897861759F119968C911997EA
:10291000861731F11A968C911A97861709F11B9632
:102920008C911B978617E1F0ED01E0E0F0E09E2F1F
:102930008E81882321F4EA0FFB1F668306C09F5F08
:1029400031962196E630F10591F7963049F481E011
:1029500090E013969C938E93129720E030E007C08E
:10296000CD011496BD010E94F41321E030E0C901AD
:10297000DF91CF91089580E861E872E045E650E08C
:102980000E94120F0895FC0180818F5F808380E890
:1029900066EE72E049E150E00E94120F089550582F
:1029A000BB27AA270ED075C166D130F06BD120F0BD
:1029B00031F49F3F11F41EF45BC10EF4E095E7FB88
:1029C00051C1E92F77D180F3BA17620773078407E3
:1029D000950718F071F49EF58FC10EF4E0950B2E5B
:1029E000BA2FA02D0B01B90190010C01CA01A00161
:1029F0001124FF27591B99F0593F50F4503E68F1BC
:102A00001A16F040A22F232F342F4427585FF3CFFC
:102A1000469537952795A795F0405395C9F77EF4CD
:102A20001F16BA0B620B730B840BBAF09150A1F016
:102A3000FF0FBB1F661F771F881FC2F70EC0BA0F9C
:102A4000621F731F841F48F4879577956795B79524
:102A5000F7959E3F08F0B3CF9395880F08F099271C
:102A6000EE0F979587950895D9D008F481E00895E1
:102A70000CD00FC107D140F0FED030F021F45F3F01
:102A800019F0F0C0511139C1F3C014D198F3992352
:102A9000C9F35523B1F3951B550BBB27AA27621722
:102AA0007307840738F09F5F5F4F220F331F441F67
:102AB000AA1FA9F333D00E2E3AF0E0E830D091509F
:102AC0005040E695001CCAF729D0FE2F27D0660F8C
:102AD000771F881FBB1F261737074807AB07B0E8CB
:102AE00009F0BB0B802DBF01FF2793585F4F2AF0E1
:102AF0009E3F510568F0B6C000C15F3FECF3983EC1
:102B0000DCF3869577956795B795F7959F5FC9F73D
:102B1000880F911D9695879597F90895E1E0660FC6
:102B2000771F881FBB1F621773078407BA0720F03F
:102B3000621B730B840BBA0BEE1F88F7E0950895A8
:102B400004D06894B111D9C00895BCD088F09F57C3
:102B500090F0B92F9927B751A0F0D1F0660F771FE9
:102B6000881F991F1AF0BA95C9F712C0B13081F0C9
:102B7000C3D0B1E00895C0C0672F782F8827B85F11
:102B800039F0B93FCCF3869577956795B395D9F72A
:102B90003EF490958095709561957F4F8F4F9F4F34
:102BA0000895E89409C097FB3EF490958095709540
:102BB00061957F4F8F4F9F4F9923A9F0F92F96E989
:102BC000BB279395F695879577956795B795F111FE
:102BD000F8CFFAF4BB0F11F460FF1BC06F5F7F4F9B
:102BE0008F4F9F4F16C0882311F096E911C07723AD
:102BF00021F09EE8872F762F05C0662371F096E8B6
:102C0000862F70E060E02AF09A95660F771F881F84
:102C1000DAF7880F9695879597F90895990F000828
:102C2000550FAA0BE0E8FEEF16161706E807F9079E
:102C3000C0F012161306E407F50798F0621B730B39
:102C4000840B950B39F40A2661F0232B242B252BBA
:102C500021F408950A2609F4A140A6958FEF811D5D
:102C6000811D089597F99F6780E870E060E00895FE
:102C70009FEF80EC089500240A9416161706180694
:102C80000906089500240A94121613061406050670
:102C90000895092E0394000C11F4882352F0BB0F01
:102CA00040F4BF2B11F460FF04C06F5F7F4F8F4F64
:102CB0009F4F089557FD9058440F551F59F05F3F9F
:102CC00071F04795880F97FB991F61F09F3F79F04E
:102CD00087950895121613061406551FF2CF4695D0
:102CE000F1DF08C0161617061806991FF1CF869552
:102CF0007105610508940895E894BB276627772736
:102D0000CB0197F908958ADF08F48FEF08950BD06F
:102D1000C0CFB1DF28F0B6DF18F0952309F0A2CFBD
:102D2000A7CF1124EACFC6DFA0F3959FD1F3950F6B
:102D300050E0551F629FF001729FBB27F00DB11D3F
:102D4000639FAA27F00DB11DAA1F649F6627B00DCF
:102D5000A11D661F829F2227B00DA11D621F739FB8
:102D6000B00DA11D621F839FA00D611D221F749FC6
:102D70003327A00D611D231F849F600D211D822F0D
:102D8000762F6A2F11249F5750408AF0E1F0882354
:102D90004AF0EE0FFF1FBB1F661F771F881F915061
:102DA0005040A9F79E3F510570F05CCFA6CF5F3F22
:102DB000ECF3983EDCF3869577956795B795F79594
:102DC000E7959F5FC1F7FE2B880F911D969587951C
:102DD00097F9089523DF880B990B0895629FD0011E
:102DE000739FF001829FE00DF11D649FE00DF11DC6
:102DF000929FF00D839FF00D749FF00D659FF00D75
:102E00009927729FB00DE11DF91F639FB00DE11D61
:102E1000F91FBD01CF011124089597FB092E072644
:102E20000AD077FD04D049D006D000201AF470955E
:102E300061957F4F0895F6F7909581959F4F08957E
:102E4000A1E21A2EAA1BBB1BFD010DC0AA1FBB1FAE
:102E5000EE1FFF1FA217B307E407F50720F0A21B20
:102E6000B30BE40BF50B661F771F881F991F1A948D
:102E700069F760957095809590959B01AC01BD01B7
:102E8000CF01089597FB092E05260ED057FD04D0DB
:102E9000D7DF0AD0001C38F4509540953095219525
:102EA0003F4F4F4F5F4F0895F6F79095809570957F
:102EB00061957F4F8F4F9F4F0895AA1BBB1B51E118
:102EC00007C0AA1FBB1FA617B70710F0A61BB70B9A
:102ED000881F991F5A95A9F780959095BC01CD013F
:102EE0000895EE0FFF1F0590F491E02D099413E073
:102EF000C8E8D3E004C0FE010E9473172296CA38C6
:082F0000D107C9F7F894FFCFD7
:102F08006E616E00696E66006F7666002E000000C6
:102F1800C8420100E100000000000080001E02001D
:102F2800000101000000008408C50C6A0849089DDA
:102F3800088C0800000000F20BC50C910BB80B9F21
:102F48000B1A0C1E0C00000000A813C50C4A14072D
:042F580014FA130054
:00000001FF
